{
  "_format": "hh-sol-artifact-1",
  "contractName": "BusinessContractExample",
  "sourceName": "contracts/business/BusinessContractExample.sol",
  "abi": [
    {
      "inputs": [],
      "name": "AccessControlBadConfirmation",
      "type": "error"
    },
    {
      "inputs": [
        {
          "internalType": "address",
          "name": "account",
          "type": "address"
        },
        {
          "internalType": "bytes32",
          "name": "neededRole",
          "type": "bytes32"
        }
      ],
      "name": "AccessControlUnauthorizedAccount",
      "type": "error"
    },
    {
      "inputs": [
        {
          "internalType": "address",
          "name": "target",
          "type": "address"
        }
      ],
      "name": "AddressEmptyCode",
      "type": "error"
    },
    {
      "inputs": [
        {
          "internalType": "address",
          "name": "implementation",
          "type": "address"
        }
      ],
      "name": "ERC1967InvalidImplementation",
      "type": "error"
    },
    {
      "inputs": [],
      "name": "ERC1967NonPayable",
      "type": "error"
    },
    {
      "inputs": [],
      "name": "FailedInnerCall",
      "type": "error"
    },
    {
      "inputs": [],
      "name": "InvalidInitialization",
      "type": "error"
    },
    {
      "inputs": [],
      "name": "NotInitializing",
      "type": "error"
    },
    {
      "inputs": [],
      "name": "UUPSUnauthorizedCallContext",
      "type": "error"
    },
    {
      "inputs": [
        {
          "internalType": "bytes32",
          "name": "slot",
          "type": "bytes32"
        }
      ],
      "name": "UUPSUnsupportedProxiableUUID",
      "type": "error"
    },
    {
      "anonymous": false,
      "inputs": [],
      "name": "EIP712DomainChanged",
      "type": "event"
    },
    {
      "anonymous": false,
      "inputs": [
        {
          "indexed": false,
          "internalType": "uint64",
          "name": "version",
          "type": "uint64"
        }
      ],
      "name": "Initialized",
      "type": "event"
    },
    {
      "anonymous": false,
      "inputs": [
        {
          "indexed": true,
          "internalType": "bytes32",
          "name": "role",
          "type": "bytes32"
        },
        {
          "indexed": true,
          "internalType": "bytes32",
          "name": "previousAdminRole",
          "type": "bytes32"
        },
        {
          "indexed": true,
          "internalType": "bytes32",
          "name": "newAdminRole",
          "type": "bytes32"
        }
      ],
      "name": "RoleAdminChanged",
      "type": "event"
    },
    {
      "anonymous": false,
      "inputs": [
        {
          "indexed": true,
          "internalType": "bytes32",
          "name": "role",
          "type": "bytes32"
        },
        {
          "indexed": true,
          "internalType": "address",
          "name": "account",
          "type": "address"
        },
        {
          "indexed": true,
          "internalType": "address",
          "name": "sender",
          "type": "address"
        }
      ],
      "name": "RoleGranted",
      "type": "event"
    },
    {
      "anonymous": false,
      "inputs": [
        {
          "indexed": true,
          "internalType": "bytes32",
          "name": "role",
          "type": "bytes32"
        },
        {
          "indexed": true,
          "internalType": "address",
          "name": "account",
          "type": "address"
        },
        {
          "indexed": true,
          "internalType": "address",
          "name": "sender",
          "type": "address"
        }
      ],
      "name": "RoleRevoked",
      "type": "event"
    },
    {
      "anonymous": false,
      "inputs": [
        {
          "indexed": false,
          "internalType": "uint256",
          "name": "from_chain_id",
          "type": "uint256"
        },
        {
          "indexed": false,
          "internalType": "uint256",
          "name": "from_id",
          "type": "uint256"
        },
        {
          "indexed": false,
          "internalType": "address",
          "name": "from_sender",
          "type": "address"
        },
        {
          "indexed": false,
          "internalType": "bytes",
          "name": "data",
          "type": "bytes"
        }
      ],
      "name": "Send",
      "type": "event"
    },
    {
      "anonymous": false,
      "inputs": [
        {
          "indexed": true,
          "internalType": "address",
          "name": "implementation",
          "type": "address"
        }
      ],
      "name": "Upgraded",
      "type": "event"
    },
    {
      "inputs": [],
      "name": "ADMIN_ROLE",
      "outputs": [
        {
          "internalType": "bytes32",
          "name": "",
          "type": "bytes32"
        }
      ],
      "stateMutability": "view",
      "type": "function"
    },
    {
      "inputs": [],
      "name": "DEFAULT_ADMIN_ROLE",
      "outputs": [
        {
          "internalType": "bytes32",
          "name": "",
          "type": "bytes32"
        }
      ],
      "stateMutability": "view",
      "type": "function"
    },
    {
      "inputs": [],
      "name": "SENDER_ROLE",
      "outputs": [
        {
          "internalType": "bytes32",
          "name": "",
          "type": "bytes32"
        }
      ],
      "stateMutability": "view",
      "type": "function"
    },
    {
      "inputs": [],
      "name": "UPGRADE_INTERFACE_VERSION",
      "outputs": [
        {
          "internalType": "string",
          "name": "",
          "type": "string"
        }
      ],
      "stateMutability": "view",
      "type": "function"
    },
    {
      "inputs": [],
      "name": "UPGRADE_ROLE",
      "outputs": [
        {
          "internalType": "bytes32",
          "name": "",
          "type": "bytes32"
        }
      ],
      "stateMutability": "view",
      "type": "function"
    },
    {
      "inputs": [],
      "name": "eip712Domain",
      "outputs": [
        {
          "internalType": "bytes1",
          "name": "fields",
          "type": "bytes1"
        },
        {
          "internalType": "string",
          "name": "name",
          "type": "string"
        },
        {
          "internalType": "string",
          "name": "version",
          "type": "string"
        },
        {
          "internalType": "uint256",
          "name": "chainId",
          "type": "uint256"
        },
        {
          "internalType": "address",
          "name": "verifyingContract",
          "type": "address"
        },
        {
          "internalType": "bytes32",
          "name": "salt",
          "type": "bytes32"
        },
        {
          "internalType": "uint256[]",
          "name": "extensions",
          "type": "uint256[]"
        }
      ],
      "stateMutability": "view",
      "type": "function"
    },
    {
      "inputs": [
        {
          "internalType": "bytes32",
          "name": "role",
          "type": "bytes32"
        }
      ],
      "name": "getRoleAdmin",
      "outputs": [
        {
          "internalType": "bytes32",
          "name": "",
          "type": "bytes32"
        }
      ],
      "stateMutability": "view",
      "type": "function"
    },
    {
      "inputs": [
        {
          "internalType": "bytes32",
          "name": "role",
          "type": "bytes32"
        },
        {
          "internalType": "address",
          "name": "account",
          "type": "address"
        }
      ],
      "name": "grantRole",
      "outputs": [],
      "stateMutability": "nonpayable",
      "type": "function"
    },
    {
      "inputs": [
        {
          "internalType": "bytes32",
          "name": "role",
          "type": "bytes32"
        },
        {
          "internalType": "address",
          "name": "account",
          "type": "address"
        }
      ],
      "name": "hasRole",
      "outputs": [
        {
          "internalType": "bool",
          "name": "",
          "type": "bool"
        }
      ],
      "stateMutability": "view",
      "type": "function"
    },
    {
      "inputs": [],
      "name": "initialize",
      "outputs": [],
      "stateMutability": "nonpayable",
      "type": "function"
    },
    {
      "inputs": [],
      "name": "proxiableUUID",
      "outputs": [
        {
          "internalType": "bytes32",
          "name": "",
          "type": "bytes32"
        }
      ],
      "stateMutability": "view",
      "type": "function"
    },
    {
      "inputs": [
        {
          "internalType": "bytes32",
          "name": "role",
          "type": "bytes32"
        },
        {
          "internalType": "address",
          "name": "callerConfirmation",
          "type": "address"
        }
      ],
      "name": "renounceRole",
      "outputs": [],
      "stateMutability": "nonpayable",
      "type": "function"
    },
    {
      "inputs": [
        {
          "internalType": "bytes32",
          "name": "role",
          "type": "bytes32"
        },
        {
          "internalType": "address",
          "name": "account",
          "type": "address"
        }
      ],
      "name": "revokeRole",
      "outputs": [],
      "stateMutability": "nonpayable",
      "type": "function"
    },
    {
      "inputs": [
        {
          "internalType": "uint256",
          "name": "from_chain_id",
          "type": "uint256"
        },
        {
          "internalType": "uint256",
          "name": "from_id",
          "type": "uint256"
        },
        {
          "internalType": "address",
          "name": "from_sender",
          "type": "address"
        },
        {
          "internalType": "bytes",
          "name": "data",
          "type": "bytes"
        }
      ],
      "name": "send",
      "outputs": [
        {
          "internalType": "bool",
          "name": "success",
          "type": "bool"
        }
      ],
      "stateMutability": "nonpayable",
      "type": "function"
    },
    {
      "inputs": [
        {
          "internalType": "bytes4",
          "name": "interfaceId",
          "type": "bytes4"
        }
      ],
      "name": "supportsInterface",
      "outputs": [
        {
          "internalType": "bool",
          "name": "",
          "type": "bool"
        }
      ],
      "stateMutability": "view",
      "type": "function"
    },
    {
      "inputs": [
        {
          "internalType": "address",
          "name": "newImplementation",
          "type": "address"
        },
        {
          "internalType": "bytes",
          "name": "data",
          "type": "bytes"
        }
      ],
      "name": "upgradeToAndCall",
      "outputs": [],
      "stateMutability": "payable",
      "type": "function"
    }
  ],
  "bytecode": "0x60a06040523060805234801561001457600080fd5b506080516114dc61003e60003960008181610a4e01528181610a770152610c1901526114dc6000f3fe6080604052600436106100f35760003560e01c806384b0196e1161008a578063b908afa811610059578063b908afa814610335578063c42ef38c14610369578063d547741f1461039d578063e09ee870146103bd57600080fd5b806384b0196e1461023d57806391d1485414610265578063a217fddf146102ca578063ad3cb1cc146102df57600080fd5b80634f1ef286116100c65780634f1ef286146101cc57806352d1902d146101df57806375b238fc146101f45780638129fc1c1461022857600080fd5b806301ffc9a7146100f8578063248a9ca31461012d5780632f2ff15d1461018a57806336568abe146101ac575b600080fd5b34801561010457600080fd5b506101186101133660046110c6565b6103dd565b60405190151581526020015b60405180910390f35b34801561013957600080fd5b5061017c610148366004611108565b60009081527f02dd7bc7dec4dceedda775e58dd541e08a116c6c53815c0bd028192f7b626800602052604090206001015490565b604051908152602001610124565b34801561019657600080fd5b506101aa6101a536600461113d565b610476565b005b3480156101b857600080fd5b506101aa6101c736600461113d565b6104c0565b6101aa6101da36600461117f565b610511565b3480156101eb57600080fd5b5061017c610530565b34801561020057600080fd5b5061017c7f589d473ba17c0f47d494622893831497bad25919b9afb8e33e9521b8963fccde81565b34801561023457600080fd5b506101aa61055f565b34801561024957600080fd5b50610252610704565b6040516101249796959493929190611291565b34801561027157600080fd5b5061011861028036600461113d565b60009182527f02dd7bc7dec4dceedda775e58dd541e08a116c6c53815c0bd028192f7b626800602090815260408084206001600160a01b0393909316845291905290205460ff1690565b3480156102d657600080fd5b5061017c600081565b3480156102eb57600080fd5b506103286040518060400160405280600581526020017f352e302e3000000000000000000000000000000000000000000000000000000081525081565b6040516101249190611343565b34801561034157600080fd5b5061017c7fcab03bc4dbcc648cd59d6bbe9f848d1e9092f914016aa290ee92e18700d1e6f981565b34801561037557600080fd5b5061017c7f1854debf63b284c3f1dda5521be910ea59783c0dff877e7649f790d06729a12f81565b3480156103a957600080fd5b506101aa6103b836600461113d565b610805565b3480156103c957600080fd5b506101186103d8366004611356565b610849565b60007fffffffff0000000000000000000000000000000000000000000000000000000082167f7965db0b00000000000000000000000000000000000000000000000000000000148061047057507f01ffc9a7000000000000000000000000000000000000000000000000000000007fffffffff000000000000000000000000000000000000000000000000000000008316145b92915050565b60008281527f02dd7bc7dec4dceedda775e58dd541e08a116c6c53815c0bd028192f7b62680060205260409020600101546104b0816108c1565b6104ba83836108ce565b50505050565b6001600160a01b0381163314610502576040517f6697b23200000000000000000000000000000000000000000000000000000000815260040160405180910390fd5b61050c828261099d565b505050565b610519610a43565b61052282610afc565b61052c8282610b26565b5050565b600061053a610c0e565b507f360894a13ba1a3210667c828492db98dca3e2076cc3735a920a3ca505d382bbc90565b7ff0c57e16840df040f15088dc2f81fe391c3923bec73e23a9662efc9c229c6a00805468010000000000000000810460ff16159067ffffffffffffffff166000811580156105aa5750825b905060008267ffffffffffffffff1660011480156105c75750303b155b9050811580156105d5575080155b1561060c576040517ff92ee8a900000000000000000000000000000000000000000000000000000000815260040160405180910390fd5b845467ffffffffffffffff19166001178555831561064057845468ff00000000000000001916680100000000000000001785555b610648610c57565b610650610c57565b61065b6000336108ce565b506106867f589d473ba17c0f47d494622893831497bad25919b9afb8e33e9521b8963fccde336108ce565b506106b17fcab03bc4dbcc648cd59d6bbe9f848d1e9092f914016aa290ee92e18700d1e6f9336108ce565b5083156106fd57845468ff000000000000000019168555604051600181527fc7f505b2f371ae2175ee4913f4499e1f2633a7b5936321eed1cdaeb6115181d29060200160405180910390a15b5050505050565b600060608082808083817fa16a46d94261c7517cc8ff89f61c0ce93598e3c849801011dee649a6a557d100805490915015801561074357506001810154155b6107ae576040517f08c379a000000000000000000000000000000000000000000000000000000000815260206004820152601560248201527f4549503731323a20556e696e697469616c697a6564000000000000000000000060448201526064015b60405180910390fd5b6107b6610c5f565b6107be610d34565b604080516000808252602082019092527f0f000000000000000000000000000000000000000000000000000000000000009c939b5091995046985030975095509350915050565b60008281527f02dd7bc7dec4dceedda775e58dd541e08a116c6c53815c0bd028192f7b626800602052604090206001015461083f816108c1565b6104ba838361099d565b60007f1854debf63b284c3f1dda5521be910ea59783c0dff877e7649f790d06729a12f610875816108c1565b7f5ec4b4254fe4f840b0f2ee94ee4e2d3b44b52badb9327a5b8baa90e75cc8395d87878787876040516108ac9594939291906113ea565b60405180910390a15060019695505050505050565b6108cb8133610d85565b50565b60008281527f02dd7bc7dec4dceedda775e58dd541e08a116c6c53815c0bd028192f7b626800602081815260408084206001600160a01b038616855290915282205460ff16610993576000848152602082815260408083206001600160a01b03871684529091529020805460ff191660011790556109493390565b6001600160a01b0316836001600160a01b0316857f2f8788117e7eff1d82e926ec794901d17c78024a50270940304540a733656f0d60405160405180910390a46001915050610470565b6000915050610470565b60008281527f02dd7bc7dec4dceedda775e58dd541e08a116c6c53815c0bd028192f7b626800602081815260408084206001600160a01b038616855290915282205460ff1615610993576000848152602082815260408083206001600160a01b0387168085529252808320805460ff1916905551339287917ff6391f5c32d9c69d2a47ea670b442974b53935d1edc7fd64eb21e047a839171b9190a46001915050610470565b306001600160a01b037f0000000000000000000000000000000000000000000000000000000000000000161480610adc57507f00000000000000000000000000000000000000000000000000000000000000006001600160a01b0316610ad07f360894a13ba1a3210667c828492db98dca3e2076cc3735a920a3ca505d382bbc546001600160a01b031690565b6001600160a01b031614155b15610afa5760405163703e46dd60e11b815260040160405180910390fd5b565b7fcab03bc4dbcc648cd59d6bbe9f848d1e9092f914016aa290ee92e18700d1e6f961052c816108c1565b816001600160a01b03166352d1902d6040518163ffffffff1660e01b8152600401602060405180830381865afa925050508015610b80575060408051601f3d908101601f19168201909252610b7d91810190611437565b60015b610ba857604051634c9c8ce360e01b81526001600160a01b03831660048201526024016107a5565b7f360894a13ba1a3210667c828492db98dca3e2076cc3735a920a3ca505d382bbc8114610c04576040517faa1d49a4000000000000000000000000000000000000000000000000000000008152600481018290526024016107a5565b61050c8383610e12565b306001600160a01b037f00000000000000000000000000000000000000000000000000000000000000001614610afa5760405163703e46dd60e11b815260040160405180910390fd5b610afa610e68565b7fa16a46d94261c7517cc8ff89f61c0ce93598e3c849801011dee649a6a557d10280546060917fa16a46d94261c7517cc8ff89f61c0ce93598e3c849801011dee649a6a557d10091610cb090611450565b80601f0160208091040260200160405190810160405280929190818152602001828054610cdc90611450565b8015610d295780601f10610cfe57610100808354040283529160200191610d29565b820191906000526020600020905b815481529060010190602001808311610d0c57829003601f168201915b505050505091505090565b7fa16a46d94261c7517cc8ff89f61c0ce93598e3c849801011dee649a6a557d10380546060917fa16a46d94261c7517cc8ff89f61c0ce93598e3c849801011dee649a6a557d10091610cb090611450565b60008281527f02dd7bc7dec4dceedda775e58dd541e08a116c6c53815c0bd028192f7b626800602090815260408083206001600160a01b038516845290915290205460ff1661052c576040517fe2517d3f0000000000000000000000000000000000000000000000000000000081526001600160a01b0382166004820152602481018390526044016107a5565b610e1b82610ecf565b6040516001600160a01b038316907fbc7cd75a20ee27fd9adebab32041f755214dbc6bffa90cc0225b39da2e5c2d3b90600090a2805115610e605761050c8282610f5e565b61052c610fd4565b7ff0c57e16840df040f15088dc2f81fe391c3923bec73e23a9662efc9c229c6a005468010000000000000000900460ff16610afa576040517fd7e6bcf800000000000000000000000000000000000000000000000000000000815260040160405180910390fd5b806001600160a01b03163b600003610f0557604051634c9c8ce360e01b81526001600160a01b03821660048201526024016107a5565b7f360894a13ba1a3210667c828492db98dca3e2076cc3735a920a3ca505d382bbc80547fffffffffffffffffffffffff0000000000000000000000000000000000000000166001600160a01b0392909216919091179055565b6060600080846001600160a01b031684604051610f7b919061148a565b600060405180830381855af49150503d8060008114610fb6576040519150601f19603f3d011682016040523d82523d6000602084013e610fbb565b606091505b5091509150610fcb85838361100c565b95945050505050565b3415610afa576040517fb398979f00000000000000000000000000000000000000000000000000000000815260040160405180910390fd5b6060826110215761101c82611084565b61107d565b815115801561103857506001600160a01b0384163b155b1561107a576040517f9996b3150000000000000000000000000000000000000000000000000000000081526001600160a01b03851660048201526024016107a5565b50805b9392505050565b8051156110945780518082602001fd5b6040517f1425ea4200000000000000000000000000000000000000000000000000000000815260040160405180910390fd5b6000602082840312156110d857600080fd5b81357fffffffff000000000000000000000000000000000000000000000000000000008116811461107d57600080fd5b60006020828403121561111a57600080fd5b5035919050565b80356001600160a01b038116811461113857600080fd5b919050565b6000806040838503121561115057600080fd5b8235915061116060208401611121565b90509250929050565b634e487b7160e01b600052604160045260246000fd5b6000806040838503121561119257600080fd5b61119b83611121565b9150602083013567ffffffffffffffff808211156111b857600080fd5b818501915085601f8301126111cc57600080fd5b8135818111156111de576111de611169565b604051601f8201601f19908116603f0116810190838211818310171561120657611206611169565b8160405282815288602084870101111561121f57600080fd5b8260208601602083013760006020848301015280955050505050509250929050565b60005b8381101561125c578181015183820152602001611244565b50506000910152565b6000815180845261127d816020860160208601611241565b601f01601f19169290920160200192915050565b7fff00000000000000000000000000000000000000000000000000000000000000881681526000602060e0818401526112cd60e084018a611265565b83810360408501526112df818a611265565b606085018990526001600160a01b038816608086015260a0850187905284810360c0860152855180825283870192509083019060005b8181101561133157835183529284019291840191600101611315565b50909c9b505050505050505050505050565b60208152600061107d6020830184611265565b60008060008060006080868803121561136e57600080fd5b853594506020860135935061138560408701611121565b9250606086013567ffffffffffffffff808211156113a257600080fd5b818801915088601f8301126113b657600080fd5b8135818111156113c557600080fd5b8960208285010111156113d757600080fd5b9699959850939650602001949392505050565b8581528460208201526001600160a01b038416604082015260806060820152816080820152818360a0830137600081830160a090810191909152601f909201601f19160101949350505050565b60006020828403121561144957600080fd5b5051919050565b600181811c9082168061146457607f821691505b60208210810361148457634e487b7160e01b600052602260045260246000fd5b50919050565b6000825161149c818460208701611241565b919091019291505056fea26469706673582212208f1862a6229b8986f5f5a907bef6ec5f39af22e314f96f6fe4d80be43dda15d864736f6c63430008140033",
  "linkReferences": {},
  "deployedLinkReferences": {}
}