{
  "_format": "hh-sol-artifact-1",
  "contractName": "B2MessageBridge",
  "sourceName": "contracts/message/B2MessageBridge.sol",
  "abi": [
    {
      "inputs": [],
      "name": "AccessControlBadConfirmation",
      "type": "error"
    },
    {
      "inputs": [
        {
          "internalType": "address",
          "name": "account",
          "type": "address"
        },
        {
          "internalType": "bytes32",
          "name": "neededRole",
          "type": "bytes32"
        }
      ],
      "name": "AccessControlUnauthorizedAccount",
      "type": "error"
    },
    {
      "inputs": [
        {
          "internalType": "address",
          "name": "target",
          "type": "address"
        }
      ],
      "name": "AddressEmptyCode",
      "type": "error"
    },
    {
      "inputs": [],
      "name": "ECDSAInvalidSignature",
      "type": "error"
    },
    {
      "inputs": [
        {
          "internalType": "uint256",
          "name": "length",
          "type": "uint256"
        }
      ],
      "name": "ECDSAInvalidSignatureLength",
      "type": "error"
    },
    {
      "inputs": [
        {
          "internalType": "bytes32",
          "name": "s",
          "type": "bytes32"
        }
      ],
      "name": "ECDSAInvalidSignatureS",
      "type": "error"
    },
    {
      "inputs": [
        {
          "internalType": "address",
          "name": "implementation",
          "type": "address"
        }
      ],
      "name": "ERC1967InvalidImplementation",
      "type": "error"
    },
    {
      "inputs": [],
      "name": "ERC1967NonPayable",
      "type": "error"
    },
    {
      "inputs": [],
      "name": "FailedInnerCall",
      "type": "error"
    },
    {
      "inputs": [],
      "name": "InvalidInitialization",
      "type": "error"
    },
    {
      "inputs": [],
      "name": "NotInitializing",
      "type": "error"
    },
    {
      "inputs": [],
      "name": "UUPSUnauthorizedCallContext",
      "type": "error"
    },
    {
      "inputs": [
        {
          "internalType": "bytes32",
          "name": "slot",
          "type": "bytes32"
        }
      ],
      "name": "UUPSUnsupportedProxiableUUID",
      "type": "error"
    },
    {
      "anonymous": false,
      "inputs": [
        {
          "indexed": false,
          "internalType": "uint256",
          "name": "from_chain_id",
          "type": "uint256"
        },
        {
          "indexed": false,
          "internalType": "uint256",
          "name": "from_id",
          "type": "uint256"
        },
        {
          "indexed": false,
          "internalType": "address",
          "name": "from_sender",
          "type": "address"
        },
        {
          "indexed": false,
          "internalType": "uint256",
          "name": "to_chain_id",
          "type": "uint256"
        },
        {
          "indexed": false,
          "internalType": "address",
          "name": "contract_address",
          "type": "address"
        },
        {
          "indexed": false,
          "internalType": "bytes",
          "name": "data",
          "type": "bytes"
        }
      ],
      "name": "Call",
      "type": "event"
    },
    {
      "anonymous": false,
      "inputs": [],
      "name": "EIP712DomainChanged",
      "type": "event"
    },
    {
      "anonymous": false,
      "inputs": [
        {
          "indexed": false,
          "internalType": "uint64",
          "name": "version",
          "type": "uint64"
        }
      ],
      "name": "Initialized",
      "type": "event"
    },
    {
      "anonymous": false,
      "inputs": [
        {
          "indexed": true,
          "internalType": "bytes32",
          "name": "role",
          "type": "bytes32"
        },
        {
          "indexed": true,
          "internalType": "bytes32",
          "name": "previousAdminRole",
          "type": "bytes32"
        },
        {
          "indexed": true,
          "internalType": "bytes32",
          "name": "newAdminRole",
          "type": "bytes32"
        }
      ],
      "name": "RoleAdminChanged",
      "type": "event"
    },
    {
      "anonymous": false,
      "inputs": [
        {
          "indexed": true,
          "internalType": "bytes32",
          "name": "role",
          "type": "bytes32"
        },
        {
          "indexed": true,
          "internalType": "address",
          "name": "account",
          "type": "address"
        },
        {
          "indexed": true,
          "internalType": "address",
          "name": "sender",
          "type": "address"
        }
      ],
      "name": "RoleGranted",
      "type": "event"
    },
    {
      "anonymous": false,
      "inputs": [
        {
          "indexed": true,
          "internalType": "bytes32",
          "name": "role",
          "type": "bytes32"
        },
        {
          "indexed": true,
          "internalType": "address",
          "name": "account",
          "type": "address"
        },
        {
          "indexed": true,
          "internalType": "address",
          "name": "sender",
          "type": "address"
        }
      ],
      "name": "RoleRevoked",
      "type": "event"
    },
    {
      "anonymous": false,
      "inputs": [
        {
          "indexed": false,
          "internalType": "uint256",
          "name": "from_chain_id",
          "type": "uint256"
        },
        {
          "indexed": false,
          "internalType": "uint256",
          "name": "from_id",
          "type": "uint256"
        },
        {
          "indexed": false,
          "internalType": "address",
          "name": "from_sender",
          "type": "address"
        },
        {
          "indexed": false,
          "internalType": "uint256",
          "name": "to_chain_id",
          "type": "uint256"
        },
        {
          "indexed": false,
          "internalType": "address",
          "name": "contract_address",
          "type": "address"
        },
        {
          "indexed": false,
          "internalType": "bytes",
          "name": "data",
          "type": "bytes"
        }
      ],
      "name": "Send",
      "type": "event"
    },
    {
      "anonymous": false,
      "inputs": [
        {
          "indexed": false,
          "internalType": "uint256",
          "name": "weight",
          "type": "uint256"
        }
      ],
      "name": "SetWeight",
      "type": "event"
    },
    {
      "anonymous": false,
      "inputs": [
        {
          "indexed": true,
          "internalType": "address",
          "name": "implementation",
          "type": "address"
        }
      ],
      "name": "Upgraded",
      "type": "event"
    },
    {
      "inputs": [],
      "name": "ADMIN_ROLE",
      "outputs": [
        {
          "internalType": "bytes32",
          "name": "",
          "type": "bytes32"
        }
      ],
      "stateMutability": "view",
      "type": "function"
    },
    {
      "inputs": [],
      "name": "DEFAULT_ADMIN_ROLE",
      "outputs": [
        {
          "internalType": "bytes32",
          "name": "",
          "type": "bytes32"
        }
      ],
      "stateMutability": "view",
      "type": "function"
    },
    {
      "inputs": [],
      "name": "SEND_HASH_TYPE",
      "outputs": [
        {
          "internalType": "bytes32",
          "name": "",
          "type": "bytes32"
        }
      ],
      "stateMutability": "view",
      "type": "function"
    },
    {
      "inputs": [
        {
          "internalType": "uint256",
          "name": "from_chain_id",
          "type": "uint256"
        },
        {
          "internalType": "uint256",
          "name": "from_id",
          "type": "uint256"
        },
        {
          "internalType": "address",
          "name": "from_sender",
          "type": "address"
        },
        {
          "internalType": "uint256",
          "name": "to_chain_id",
          "type": "uint256"
        },
        {
          "internalType": "address",
          "name": "contract_address",
          "type": "address"
        },
        {
          "internalType": "bytes",
          "name": "data",
          "type": "bytes"
        }
      ],
      "name": "SendHash",
      "outputs": [
        {
          "internalType": "bytes32",
          "name": "",
          "type": "bytes32"
        }
      ],
      "stateMutability": "view",
      "type": "function"
    },
    {
      "inputs": [],
      "name": "UPGRADE_INTERFACE_VERSION",
      "outputs": [
        {
          "internalType": "string",
          "name": "",
          "type": "string"
        }
      ],
      "stateMutability": "view",
      "type": "function"
    },
    {
      "inputs": [],
      "name": "UPGRADE_ROLE",
      "outputs": [
        {
          "internalType": "bytes32",
          "name": "",
          "type": "bytes32"
        }
      ],
      "stateMutability": "view",
      "type": "function"
    },
    {
      "inputs": [],
      "name": "VALIDATOR_ROLE",
      "outputs": [
        {
          "internalType": "bytes32",
          "name": "",
          "type": "bytes32"
        }
      ],
      "stateMutability": "view",
      "type": "function"
    },
    {
      "inputs": [
        {
          "internalType": "uint256",
          "name": "to_chain_id",
          "type": "uint256"
        },
        {
          "internalType": "address",
          "name": "contract_address",
          "type": "address"
        },
        {
          "internalType": "bytes",
          "name": "data",
          "type": "bytes"
        }
      ],
      "name": "call",
      "outputs": [
        {
          "internalType": "uint256",
          "name": "",
          "type": "uint256"
        }
      ],
      "stateMutability": "nonpayable",
      "type": "function"
    },
    {
      "inputs": [],
      "name": "eip712Domain",
      "outputs": [
        {
          "internalType": "bytes1",
          "name": "fields",
          "type": "bytes1"
        },
        {
          "internalType": "string",
          "name": "name",
          "type": "string"
        },
        {
          "internalType": "string",
          "name": "version",
          "type": "string"
        },
        {
          "internalType": "uint256",
          "name": "chainId",
          "type": "uint256"
        },
        {
          "internalType": "address",
          "name": "verifyingContract",
          "type": "address"
        },
        {
          "internalType": "bytes32",
          "name": "salt",
          "type": "bytes32"
        },
        {
          "internalType": "uint256[]",
          "name": "extensions",
          "type": "uint256[]"
        }
      ],
      "stateMutability": "view",
      "type": "function"
    },
    {
      "inputs": [
        {
          "internalType": "bytes32",
          "name": "role",
          "type": "bytes32"
        }
      ],
      "name": "getRoleAdmin",
      "outputs": [
        {
          "internalType": "bytes32",
          "name": "",
          "type": "bytes32"
        }
      ],
      "stateMutability": "view",
      "type": "function"
    },
    {
      "inputs": [
        {
          "internalType": "bytes32",
          "name": "role",
          "type": "bytes32"
        },
        {
          "internalType": "address",
          "name": "account",
          "type": "address"
        }
      ],
      "name": "grantRole",
      "outputs": [],
      "stateMutability": "nonpayable",
      "type": "function"
    },
    {
      "inputs": [
        {
          "internalType": "bytes32",
          "name": "role",
          "type": "bytes32"
        },
        {
          "internalType": "address",
          "name": "account",
          "type": "address"
        }
      ],
      "name": "hasRole",
      "outputs": [
        {
          "internalType": "bool",
          "name": "",
          "type": "bool"
        }
      ],
      "stateMutability": "view",
      "type": "function"
    },
    {
      "inputs": [
        {
          "internalType": "uint256",
          "name": "",
          "type": "uint256"
        },
        {
          "internalType": "uint256",
          "name": "",
          "type": "uint256"
        }
      ],
      "name": "ids",
      "outputs": [
        {
          "internalType": "bool",
          "name": "",
          "type": "bool"
        }
      ],
      "stateMutability": "view",
      "type": "function"
    },
    {
      "inputs": [],
      "name": "initialize",
      "outputs": [],
      "stateMutability": "nonpayable",
      "type": "function"
    },
    {
      "inputs": [],
      "name": "proxiableUUID",
      "outputs": [
        {
          "internalType": "bytes32",
          "name": "",
          "type": "bytes32"
        }
      ],
      "stateMutability": "view",
      "type": "function"
    },
    {
      "inputs": [
        {
          "internalType": "bytes32",
          "name": "role",
          "type": "bytes32"
        },
        {
          "internalType": "address",
          "name": "callerConfirmation",
          "type": "address"
        }
      ],
      "name": "renounceRole",
      "outputs": [],
      "stateMutability": "nonpayable",
      "type": "function"
    },
    {
      "inputs": [
        {
          "internalType": "bytes32",
          "name": "role",
          "type": "bytes32"
        },
        {
          "internalType": "address",
          "name": "account",
          "type": "address"
        }
      ],
      "name": "revokeRole",
      "outputs": [],
      "stateMutability": "nonpayable",
      "type": "function"
    },
    {
      "inputs": [
        {
          "internalType": "uint256",
          "name": "from_chain_id",
          "type": "uint256"
        },
        {
          "internalType": "uint256",
          "name": "from_id",
          "type": "uint256"
        },
        {
          "internalType": "address",
          "name": "from_sender",
          "type": "address"
        },
        {
          "internalType": "address",
          "name": "contract_address",
          "type": "address"
        },
        {
          "internalType": "bytes",
          "name": "data",
          "type": "bytes"
        },
        {
          "internalType": "bytes[]",
          "name": "signatures",
          "type": "bytes[]"
        }
      ],
      "name": "send",
      "outputs": [],
      "stateMutability": "nonpayable",
      "type": "function"
    },
    {
      "inputs": [],
      "name": "sequence",
      "outputs": [
        {
          "internalType": "uint256",
          "name": "",
          "type": "uint256"
        }
      ],
      "stateMutability": "view",
      "type": "function"
    },
    {
      "inputs": [
        {
          "internalType": "uint256",
          "name": "",
          "type": "uint256"
        }
      ],
      "name": "sequences",
      "outputs": [
        {
          "internalType": "uint256",
          "name": "",
          "type": "uint256"
        }
      ],
      "stateMutability": "view",
      "type": "function"
    },
    {
      "inputs": [
        {
          "internalType": "uint256",
          "name": "_weight",
          "type": "uint256"
        }
      ],
      "name": "setWeight",
      "outputs": [],
      "stateMutability": "nonpayable",
      "type": "function"
    },
    {
      "inputs": [
        {
          "internalType": "bytes4",
          "name": "interfaceId",
          "type": "bytes4"
        }
      ],
      "name": "supportsInterface",
      "outputs": [
        {
          "internalType": "bool",
          "name": "",
          "type": "bool"
        }
      ],
      "stateMutability": "view",
      "type": "function"
    },
    {
      "inputs": [
        {
          "internalType": "address",
          "name": "newImplementation",
          "type": "address"
        },
        {
          "internalType": "bytes",
          "name": "data",
          "type": "bytes"
        }
      ],
      "name": "upgradeToAndCall",
      "outputs": [],
      "stateMutability": "payable",
      "type": "function"
    },
    {
      "inputs": [
        {
          "internalType": "uint256",
          "name": "from_chain_id",
          "type": "uint256"
        },
        {
          "internalType": "uint256",
          "name": "from_id",
          "type": "uint256"
        },
        {
          "internalType": "address",
          "name": "from_sender",
          "type": "address"
        },
        {
          "internalType": "uint256",
          "name": "to_chain_id",
          "type": "uint256"
        },
        {
          "internalType": "address",
          "name": "contract_address",
          "type": "address"
        },
        {
          "internalType": "bytes",
          "name": "data",
          "type": "bytes"
        },
        {
          "internalType": "bytes",
          "name": "signature",
          "type": "bytes"
        }
      ],
      "name": "verify",
      "outputs": [
        {
          "internalType": "bool",
          "name": "",
          "type": "bool"
        }
      ],
      "stateMutability": "view",
      "type": "function"
    },
    {
      "inputs": [],
      "name": "weight",
      "outputs": [
        {
          "internalType": "uint256",
          "name": "",
          "type": "uint256"
        }
      ],
      "stateMutability": "view",
      "type": "function"
    }
  ],
  "bytecode": "0x60a06040523060805234801561001457600080fd5b5060805161242c61003e600039600081816110a9015281816110d20152611274015261242c6000f3fe6080604052600436106101965760003560e01c806384b0196e116100e1578063b908afa81161008a578063c86a64f711610064578063c86a64f714610527578063cc8f426114610554578063d547741f14610588578063fc1711f2146105a857600080fd5b8063b908afa81461049f578063bc5c11aa146104d3578063c49baebe146104f357600080fd5b8063a1aab33f116100bb578063a1aab33f1461041e578063a217fddf14610434578063ad3cb1cc1461044957600080fd5b806384b0196e1461035657806391d148541461037e5780639d449d11146103e357600080fd5b80634f1ef286116101435780636ba3300c1161011d5780636ba3300c146102ed57806375b238fc1461030d5780638129fc1c1461034157600080fd5b80634f1ef286146102af578063529d15cc146102c257806352d1902d146102d857600080fd5b8063248a9ca311610174578063248a9ca3146102205780632f2ff15d1461026f57806336568abe1461028f57600080fd5b806301ffc9a71461019b57806304760f2e146101d05780630d682acb146101fe575b600080fd5b3480156101a757600080fd5b506101bb6101b6366004611b45565b6105c8565b60405190151581526020015b60405180910390f35b3480156101dc57600080fd5b506101f06101eb366004611bec565b610661565b6040519081526020016101c7565b34801561020a57600080fd5b5061021e610219366004611c6e565b6106cc565b005b34801561022c57600080fd5b506101f061023b366004611d42565b60009081527f02dd7bc7dec4dceedda775e58dd541e08a116c6c53815c0bd028192f7b626800602052604090206001015490565b34801561027b57600080fd5b5061021e61028a366004611d5b565b610934565b34801561029b57600080fd5b5061021e6102aa366004611d5b565b61097e565b61021e6102bd366004611d9d565b6109cf565b3480156102ce57600080fd5b506101f060005481565b3480156102e457600080fd5b506101f06109ee565b3480156102f957600080fd5b506101f0610308366004611e5f565b610a1d565b34801561031957600080fd5b506101f07f589d473ba17c0f47d494622893831497bad25919b9afb8e33e9521b8963fccde81565b34801561034d57600080fd5b5061021e610aa6565b34801561036257600080fd5b5061036b610cbf565b6040516101c79796959493929190611f09565b34801561038a57600080fd5b506101bb610399366004611d5b565b60009182527f02dd7bc7dec4dceedda775e58dd541e08a116c6c53815c0bd028192f7b626800602090815260408084206001600160a01b0393909316845291905290205460ff1690565b3480156103ef57600080fd5b506101bb6103fe366004611fbb565b600360209081526000928352604080842090915290825290205460ff1681565b34801561042a57600080fd5b506101f060015481565b34801561044057600080fd5b506101f0600081565b34801561045557600080fd5b506104926040518060400160405280600581526020017f352e302e3000000000000000000000000000000000000000000000000000000081525081565b6040516101c79190611fdd565b3480156104ab57600080fd5b506101f07fcab03bc4dbcc648cd59d6bbe9f848d1e9092f914016aa290ee92e18700d1e6f981565b3480156104df57600080fd5b506101bb6104ee366004611ff0565b610da1565b3480156104ff57600080fd5b506101f07f5635ac0328a174458ffe72e6c6023489a57ff03280729989530f567288831c9181565b34801561053357600080fd5b506101f0610542366004611d42565b60026020526000908152604090205481565b34801561056057600080fd5b506101f07f17a4f53d2ecdb8066d7886a0e506b8014ce17a9a263db690785538a077e52b0981565b34801561059457600080fd5b5061021e6105a3366004611d5b565b610e2a565b3480156105b457600080fd5b5061021e6105c3366004611d42565b610e6e565b60007fffffffff0000000000000000000000000000000000000000000000000000000082167f7965db0b00000000000000000000000000000000000000000000000000000000148061065b57507f01ffc9a7000000000000000000000000000000000000000000000000000000007fffffffff000000000000000000000000000000000000000000000000000000008316145b92915050565b60006106c07f17a4f53d2ecdb8066d7886a0e506b8014ce17a9a263db690785538a077e52b09898989898989896040516020016106a59897969594939291906120c9565b60405160208183030381529060405280519060200120610ed4565b98975050505050505050565b60008881526003602090815260408083208a845290915290205460ff161561073b5760405162461bcd60e51b815260206004820152601960248201527f6e6f6e2d72657065617461626c652070726f63657373696e670000000000000060448201526064015b60405180910390fd5b6000805b828110156107a05760006107778a8c8b468c8c8c8c8c8b8181106107655761076561211c565b90506020028101906104ee9190612132565b9050801561078d5761078a83600161218f565b92505b5080610798816121a2565b91505061073f565b506001548110156107f35760405162461bcd60e51b815260206004820181905260248201527f766572696679207369676e6174757265732077656967687420696e76616c69646044820152606401610732565b6001600160a01b038616156108e6576040517fe09ee8700000000000000000000000000000000000000000000000000000000081526000906001600160a01b0388169063e09ee87090610852908d908d908d908c908c906004016121bb565b6020604051808303816000875af1158015610871573d6000803e3d6000fd5b505050506040513d601f19601f8201168201806040525081019061089591906121f5565b9050806108e45760405162461bcd60e51b815260206004820152600b60248201527f43616c6c206661696c65640000000000000000000000000000000000000000006044820152606401610732565b505b7f5849ae3f4bc77f0ebd2d6db4ff282f91f2191d3df4493e63176c2ed22fb81852898989468a8a8a6040516109219796959493929190612217565b60405180910390a1505050505050505050565b60008281527f02dd7bc7dec4dceedda775e58dd541e08a116c6c53815c0bd028192f7b626800602052604090206001015461096e81610f1c565b6109788383610f29565b50505050565b6001600160a01b03811633146109c0576040517f6697b23200000000000000000000000000000000000000000000000000000000815260040160405180910390fd5b6109ca8282610ff8565b505050565b6109d761109e565b6109e082611157565b6109ea8282611181565b5050565b60006109f8611269565b507f360894a13ba1a3210667c828492db98dca3e2076cc3735a920a3ca505d382bbc90565b600084815260026020526040812080549082610a38836121a2565b9091555050600085815260026020526040908190205490517f599c34a8d0b3638870afcfe3d7d8125602721889a7535cda986ea656e63fc38c91610a889146919033908a908a908a908a90612217565b60405180910390a15050506000918252506002602052604090205490565b7ff0c57e16840df040f15088dc2f81fe391c3923bec73e23a9662efc9c229c6a00805468010000000000000000810460ff16159067ffffffffffffffff16600081158015610af15750825b905060008267ffffffffffffffff166001148015610b0e5750303b155b905081158015610b1c575080155b15610b53576040517ff92ee8a900000000000000000000000000000000000000000000000000000000815260040160405180910390fd5b845467ffffffffffffffff191660011785558315610b8757845468ff00000000000000001916680100000000000000001785555b610bfb6040518060400160405280600f81526020017f42324d65737361676542726964676500000000000000000000000000000000008152506040518060400160405280600181526020017f31000000000000000000000000000000000000000000000000000000000000008152506112b2565b610c036112c4565b610c0b6112c4565b610c16600033610f29565b50610c417f589d473ba17c0f47d494622893831497bad25919b9afb8e33e9521b8963fccde33610f29565b50610c6c7fcab03bc4dbcc648cd59d6bbe9f848d1e9092f914016aa290ee92e18700d1e6f933610f29565b508315610cb857845468ff000000000000000019168555604051600181527fc7f505b2f371ae2175ee4913f4499e1f2633a7b5936321eed1cdaeb6115181d29060200160405180910390a15b5050505050565b600060608082808083817fa16a46d94261c7517cc8ff89f61c0ce93598e3c849801011dee649a6a557d1008054909150158015610cfe57506001810154155b610d4a5760405162461bcd60e51b815260206004820152601560248201527f4549503731323a20556e696e697469616c697a656400000000000000000000006044820152606401610732565b610d526112cc565b610d5a6113a1565b604080516000808252602082019092527f0f000000000000000000000000000000000000000000000000000000000000009c939b5091995046985030975095509350915050565b600080610db38b8b8b8b8b8b8b610661565b9050610e1b7f5635ac0328a174458ffe72e6c6023489a57ff03280729989530f567288831c9161039986868080601f01602080910402602001604051908101604052809392919081815260200183838082843760009201919091525087939250506113f29050565b9b9a5050505050505050505050565b60008281527f02dd7bc7dec4dceedda775e58dd541e08a116c6c53815c0bd028192f7b6268006020526040902060010154610e6481610f1c565b6109788383610ff8565b7f589d473ba17c0f47d494622893831497bad25919b9afb8e33e9521b8963fccde610e9881610f1c565b60018290556040518281527f1b29ec9f95417d697093ba2f17ce0861fb5bcbb7d5011cdde1020c9263ecc1169060200160405180910390a15050565b600061065b610ee161141c565b836040517f19010000000000000000000000000000000000000000000000000000000000008152600281019290925260228201526042902090565b610f26813361142b565b50565b60008281527f02dd7bc7dec4dceedda775e58dd541e08a116c6c53815c0bd028192f7b626800602081815260408084206001600160a01b038616855290915282205460ff16610fee576000848152602082815260408083206001600160a01b03871684529091529020805460ff19166001179055610fa43390565b6001600160a01b0316836001600160a01b0316857f2f8788117e7eff1d82e926ec794901d17c78024a50270940304540a733656f0d60405160405180910390a4600191505061065b565b600091505061065b565b60008281527f02dd7bc7dec4dceedda775e58dd541e08a116c6c53815c0bd028192f7b626800602081815260408084206001600160a01b038616855290915282205460ff1615610fee576000848152602082815260408083206001600160a01b0387168085529252808320805460ff1916905551339287917ff6391f5c32d9c69d2a47ea670b442974b53935d1edc7fd64eb21e047a839171b9190a4600191505061065b565b306001600160a01b037f000000000000000000000000000000000000000000000000000000000000000016148061113757507f00000000000000000000000000000000000000000000000000000000000000006001600160a01b031661112b7f360894a13ba1a3210667c828492db98dca3e2076cc3735a920a3ca505d382bbc546001600160a01b031690565b6001600160a01b031614155b156111555760405163703e46dd60e11b815260040160405180910390fd5b565b7fcab03bc4dbcc648cd59d6bbe9f848d1e9092f914016aa290ee92e18700d1e6f96109ea81610f1c565b816001600160a01b03166352d1902d6040518163ffffffff1660e01b8152600401602060405180830381865afa9250505080156111db575060408051601f3d908101601f191682019092526111d891810190612263565b60015b61120357604051634c9c8ce360e01b81526001600160a01b0383166004820152602401610732565b7f360894a13ba1a3210667c828492db98dca3e2076cc3735a920a3ca505d382bbc811461125f576040517faa1d49a400000000000000000000000000000000000000000000000000000000815260048101829052602401610732565b6109ca83836114b8565b306001600160a01b037f000000000000000000000000000000000000000000000000000000000000000016146111555760405163703e46dd60e11b815260040160405180910390fd5b6112ba61150e565b6109ea8282611575565b61115561150e565b7fa16a46d94261c7517cc8ff89f61c0ce93598e3c849801011dee649a6a557d10280546060917fa16a46d94261c7517cc8ff89f61c0ce93598e3c849801011dee649a6a557d1009161131d9061227c565b80601f01602080910402602001604051908101604052809291908181526020018280546113499061227c565b80156113965780601f1061136b57610100808354040283529160200191611396565b820191906000526020600020905b81548152906001019060200180831161137957829003601f168201915b505050505091505090565b7fa16a46d94261c7517cc8ff89f61c0ce93598e3c849801011dee649a6a557d10380546060917fa16a46d94261c7517cc8ff89f61c0ce93598e3c849801011dee649a6a557d1009161131d9061227c565b60008060008061140286866115e8565b9250925092506114128282611635565b5090949350505050565b6000611426611739565b905090565b60008281527f02dd7bc7dec4dceedda775e58dd541e08a116c6c53815c0bd028192f7b626800602090815260408083206001600160a01b038516845290915290205460ff166109ea576040517fe2517d3f0000000000000000000000000000000000000000000000000000000081526001600160a01b038216600482015260248101839052604401610732565b6114c1826117ad565b6040516001600160a01b038316907fbc7cd75a20ee27fd9adebab32041f755214dbc6bffa90cc0225b39da2e5c2d3b90600090a2805115611506576109ca828261183c565b6109ea6118b2565b7ff0c57e16840df040f15088dc2f81fe391c3923bec73e23a9662efc9c229c6a005468010000000000000000900460ff16611155576040517fd7e6bcf800000000000000000000000000000000000000000000000000000000815260040160405180910390fd5b61157d61150e565b7fa16a46d94261c7517cc8ff89f61c0ce93598e3c849801011dee649a6a557d1007fa16a46d94261c7517cc8ff89f61c0ce93598e3c849801011dee649a6a557d1026115c98482612304565b50600381016115d88382612304565b5060008082556001909101555050565b600080600083516041036116225760208401516040850151606086015160001a611614888285856118ea565b95509550955050505061162e565b50508151600091506002905b9250925092565b6000826003811115611649576116496123c4565b03611652575050565b6001826003811115611666576116666123c4565b0361169d576040517ff645eedf00000000000000000000000000000000000000000000000000000000815260040160405180910390fd5b60028260038111156116b1576116b16123c4565b036116eb576040517ffce698f700000000000000000000000000000000000000000000000000000000815260048101829052602401610732565b60038260038111156116ff576116ff6123c4565b036109ea576040517fd78bce0c00000000000000000000000000000000000000000000000000000000815260048101829052602401610732565b60007f8b73c3c69bb8fe3d512ecc4cf759cc79239f7b179b0ffacaa9a75d522b39400f6117646119b9565b61176c611a35565b60408051602081019490945283019190915260608201524660808201523060a082015260c00160405160208183030381529060405280519060200120905090565b806001600160a01b03163b6000036117e357604051634c9c8ce360e01b81526001600160a01b0382166004820152602401610732565b7f360894a13ba1a3210667c828492db98dca3e2076cc3735a920a3ca505d382bbc80547fffffffffffffffffffffffff0000000000000000000000000000000000000000166001600160a01b0392909216919091179055565b6060600080846001600160a01b03168460405161185991906123da565b600060405180830381855af49150503d8060008114611894576040519150601f19603f3d011682016040523d82523d6000602084013e611899565b606091505b50915091506118a9858383611a8b565b95945050505050565b3415611155576040517fb398979f00000000000000000000000000000000000000000000000000000000815260040160405180910390fd5b600080807f7fffffffffffffffffffffffffffffff5d576e7357a4501ddfe92f46681b20a084111561192557506000915060039050826119af565b604080516000808252602082018084528a905260ff891692820192909252606081018790526080810186905260019060a0016020604051602081039080840390855afa158015611979573d6000803e3d6000fd5b5050604051601f1901519150506001600160a01b0381166119a5575060009250600191508290506119af565b9250600091508190505b9450945094915050565b60007fa16a46d94261c7517cc8ff89f61c0ce93598e3c849801011dee649a6a557d100816119e56112cc565b8051909150156119fd57805160209091012092915050565b81548015611a0c579392505050565b7fc5d2460186f7233c927e7db2dcc703c0e500b653ca82273b7bfad8045d85a470935050505090565b60007fa16a46d94261c7517cc8ff89f61c0ce93598e3c849801011dee649a6a557d10081611a616113a1565b805190915015611a7957805160209091012092915050565b60018201548015611a0c579392505050565b606082611aa057611a9b82611b03565b611afc565b8151158015611ab757506001600160a01b0384163b155b15611af9576040517f9996b3150000000000000000000000000000000000000000000000000000000081526001600160a01b0385166004820152602401610732565b50805b9392505050565b805115611b135780518082602001fd5b6040517f1425ea4200000000000000000000000000000000000000000000000000000000815260040160405180910390fd5b600060208284031215611b5757600080fd5b81357fffffffff0000000000000000000000000000000000000000000000000000000081168114611afc57600080fd5b80356001600160a01b0381168114611b9e57600080fd5b919050565b60008083601f840112611bb557600080fd5b50813567ffffffffffffffff811115611bcd57600080fd5b602083019150836020828501011115611be557600080fd5b9250929050565b600080600080600080600060c0888a031215611c0757600080fd5b8735965060208801359550611c1e60408901611b87565b945060608801359350611c3360808901611b87565b925060a088013567ffffffffffffffff811115611c4f57600080fd5b611c5b8a828b01611ba3565b989b979a50959850939692959293505050565b60008060008060008060008060c0898b031215611c8a57600080fd5b8835975060208901359650611ca160408a01611b87565b9550611caf60608a01611b87565b9450608089013567ffffffffffffffff80821115611ccc57600080fd5b611cd88c838d01611ba3565b909650945060a08b0135915080821115611cf157600080fd5b818b0191508b601f830112611d0557600080fd5b813581811115611d1457600080fd5b8c60208260051b8501011115611d2957600080fd5b6020830194508093505050509295985092959890939650565b600060208284031215611d5457600080fd5b5035919050565b60008060408385031215611d6e57600080fd5b82359150611d7e60208401611b87565b90509250929050565b634e487b7160e01b600052604160045260246000fd5b60008060408385031215611db057600080fd5b611db983611b87565b9150602083013567ffffffffffffffff80821115611dd657600080fd5b818501915085601f830112611dea57600080fd5b813581811115611dfc57611dfc611d87565b604051601f8201601f19908116603f01168101908382118183101715611e2457611e24611d87565b81604052828152886020848701011115611e3d57600080fd5b8260208601602083013760006020848301015280955050505050509250929050565b60008060008060608587031215611e7557600080fd5b84359350611e8560208601611b87565b9250604085013567ffffffffffffffff811115611ea157600080fd5b611ead87828801611ba3565b95989497509550505050565b60005b83811015611ed4578181015183820152602001611ebc565b50506000910152565b60008151808452611ef5816020860160208601611eb9565b601f01601f19169290920160200192915050565b7fff00000000000000000000000000000000000000000000000000000000000000881681526000602060e081840152611f4560e084018a611edd565b8381036040850152611f57818a611edd565b606085018990526001600160a01b038816608086015260a0850187905284810360c0860152855180825283870192509083019060005b81811015611fa957835183529284019291840191600101611f8d565b50909c9b505050505050505050505050565b60008060408385031215611fce57600080fd5b50508035926020909101359150565b602081526000611afc6020830184611edd565b600080600080600080600080600060e08a8c03121561200e57600080fd5b8935985060208a0135975061202560408b01611b87565b965060608a0135955061203a60808b01611b87565b945060a08a013567ffffffffffffffff8082111561205757600080fd5b6120638d838e01611ba3565b909650945060c08c013591508082111561207c57600080fd5b506120898c828d01611ba3565b915080935050809150509295985092959850929598565b81835281816020850137506000828201602090810191909152601f909101601f19169091010190565b88815287602082015286604082015260006001600160a01b03808816606084015286608084015280861660a08401525060e060c083015261210e60e0830184866120a0565b9a9950505050505050505050565b634e487b7160e01b600052603260045260246000fd5b6000808335601e1984360301811261214957600080fd5b83018035915067ffffffffffffffff82111561216457600080fd5b602001915036819003821315611be557600080fd5b634e487b7160e01b600052601160045260246000fd5b8082018082111561065b5761065b612179565b6000600182016121b4576121b4612179565b5060010190565b8581528460208201526001600160a01b03841660408201526080606082015260006121ea6080830184866120a0565b979650505050505050565b60006020828403121561220757600080fd5b81518015158114611afc57600080fd5b87815286602082015260006001600160a01b03808816604084015286606084015280861660808401525060c060a083015261225660c0830184866120a0565b9998505050505050505050565b60006020828403121561227557600080fd5b5051919050565b600181811c9082168061229057607f821691505b6020821081036122b057634e487b7160e01b600052602260045260246000fd5b50919050565b601f8211156109ca57600081815260208120601f850160051c810160208610156122dd5750805b601f850160051c820191505b818110156122fc578281556001016122e9565b505050505050565b815167ffffffffffffffff81111561231e5761231e611d87565b6123328161232c845461227c565b846122b6565b602080601f831160018114612367576000841561234f5750858301515b600019600386901b1c1916600185901b1785556122fc565b600085815260208120601f198616915b8281101561239657888601518255948401946001909101908401612377565b50858210156123b45787850151600019600388901b60f8161c191681555b5050505050600190811b01905550565b634e487b7160e01b600052602160045260246000fd5b600082516123ec818460208701611eb9565b919091019291505056fea26469706673582212208228339ac58ba7f0c6cd5a8b7725a0b11e1581706294a7353b09ed34aa03e68164736f6c63430008140033",
  "linkReferences": {},
  "deployedLinkReferences": {}
}