{
  "_format": "hh-sol-artifact-1",
  "contractName": "B2MessageBridge",
  "sourceName": "contracts/message/B2MessageBridge.sol",
  "abi": [
    {
      "inputs": [],
      "name": "AccessControlBadConfirmation",
      "type": "error"
    },
    {
      "inputs": [
        {
          "internalType": "address",
          "name": "account",
          "type": "address"
        },
        {
          "internalType": "bytes32",
          "name": "neededRole",
          "type": "bytes32"
        }
      ],
      "name": "AccessControlUnauthorizedAccount",
      "type": "error"
    },
    {
      "inputs": [
        {
          "internalType": "address",
          "name": "target",
          "type": "address"
        }
      ],
      "name": "AddressEmptyCode",
      "type": "error"
    },
    {
      "inputs": [],
      "name": "ECDSAInvalidSignature",
      "type": "error"
    },
    {
      "inputs": [
        {
          "internalType": "uint256",
          "name": "length",
          "type": "uint256"
        }
      ],
      "name": "ECDSAInvalidSignatureLength",
      "type": "error"
    },
    {
      "inputs": [
        {
          "internalType": "bytes32",
          "name": "s",
          "type": "bytes32"
        }
      ],
      "name": "ECDSAInvalidSignatureS",
      "type": "error"
    },
    {
      "inputs": [
        {
          "internalType": "address",
          "name": "implementation",
          "type": "address"
        }
      ],
      "name": "ERC1967InvalidImplementation",
      "type": "error"
    },
    {
      "inputs": [],
      "name": "ERC1967NonPayable",
      "type": "error"
    },
    {
      "inputs": [],
      "name": "FailedInnerCall",
      "type": "error"
    },
    {
      "inputs": [],
      "name": "InvalidInitialization",
      "type": "error"
    },
    {
      "inputs": [],
      "name": "NotInitializing",
      "type": "error"
    },
    {
      "inputs": [],
      "name": "UUPSUnauthorizedCallContext",
      "type": "error"
    },
    {
      "inputs": [
        {
          "internalType": "bytes32",
          "name": "slot",
          "type": "bytes32"
        }
      ],
      "name": "UUPSUnsupportedProxiableUUID",
      "type": "error"
    },
    {
      "anonymous": false,
      "inputs": [
        {
          "indexed": false,
          "internalType": "uint256",
          "name": "from_chain_id",
          "type": "uint256"
        },
        {
          "indexed": false,
          "internalType": "uint256",
          "name": "from_id",
          "type": "uint256"
        },
        {
          "indexed": false,
          "internalType": "address",
          "name": "from_sender",
          "type": "address"
        },
        {
          "indexed": false,
          "internalType": "uint256",
          "name": "to_chain_id",
          "type": "uint256"
        },
        {
          "indexed": false,
          "internalType": "address",
          "name": "contract_address",
          "type": "address"
        },
        {
          "indexed": false,
          "internalType": "bytes",
          "name": "data",
          "type": "bytes"
        }
      ],
      "name": "Call",
      "type": "event"
    },
    {
      "anonymous": false,
      "inputs": [],
      "name": "EIP712DomainChanged",
      "type": "event"
    },
    {
      "anonymous": false,
      "inputs": [
        {
          "indexed": false,
          "internalType": "uint64",
          "name": "version",
          "type": "uint64"
        }
      ],
      "name": "Initialized",
      "type": "event"
    },
    {
      "anonymous": false,
      "inputs": [
        {
          "indexed": true,
          "internalType": "bytes32",
          "name": "role",
          "type": "bytes32"
        },
        {
          "indexed": true,
          "internalType": "bytes32",
          "name": "previousAdminRole",
          "type": "bytes32"
        },
        {
          "indexed": true,
          "internalType": "bytes32",
          "name": "newAdminRole",
          "type": "bytes32"
        }
      ],
      "name": "RoleAdminChanged",
      "type": "event"
    },
    {
      "anonymous": false,
      "inputs": [
        {
          "indexed": true,
          "internalType": "bytes32",
          "name": "role",
          "type": "bytes32"
        },
        {
          "indexed": true,
          "internalType": "address",
          "name": "account",
          "type": "address"
        },
        {
          "indexed": true,
          "internalType": "address",
          "name": "sender",
          "type": "address"
        }
      ],
      "name": "RoleGranted",
      "type": "event"
    },
    {
      "anonymous": false,
      "inputs": [
        {
          "indexed": true,
          "internalType": "bytes32",
          "name": "role",
          "type": "bytes32"
        },
        {
          "indexed": true,
          "internalType": "address",
          "name": "account",
          "type": "address"
        },
        {
          "indexed": true,
          "internalType": "address",
          "name": "sender",
          "type": "address"
        }
      ],
      "name": "RoleRevoked",
      "type": "event"
    },
    {
      "anonymous": false,
      "inputs": [
        {
          "indexed": false,
          "internalType": "uint256",
          "name": "from_chain_id",
          "type": "uint256"
        },
        {
          "indexed": false,
          "internalType": "uint256",
          "name": "from_id",
          "type": "uint256"
        },
        {
          "indexed": false,
          "internalType": "address",
          "name": "from_sender",
          "type": "address"
        },
        {
          "indexed": false,
          "internalType": "uint256",
          "name": "to_chain_id",
          "type": "uint256"
        },
        {
          "indexed": false,
          "internalType": "address",
          "name": "contract_address",
          "type": "address"
        },
        {
          "indexed": false,
          "internalType": "bytes",
          "name": "data",
          "type": "bytes"
        }
      ],
      "name": "Send",
      "type": "event"
    },
    {
      "anonymous": false,
      "inputs": [
        {
          "indexed": false,
          "internalType": "uint256",
          "name": "weight",
          "type": "uint256"
        }
      ],
      "name": "SetWeight",
      "type": "event"
    },
    {
      "anonymous": false,
      "inputs": [
        {
          "indexed": true,
          "internalType": "address",
          "name": "implementation",
          "type": "address"
        }
      ],
      "name": "Upgraded",
      "type": "event"
    },
    {
      "inputs": [],
      "name": "ADMIN_ROLE",
      "outputs": [
        {
          "internalType": "bytes32",
          "name": "",
          "type": "bytes32"
        }
      ],
      "stateMutability": "view",
      "type": "function"
    },
    {
      "inputs": [],
      "name": "DEFAULT_ADMIN_ROLE",
      "outputs": [
        {
          "internalType": "bytes32",
          "name": "",
          "type": "bytes32"
        }
      ],
      "stateMutability": "view",
      "type": "function"
    },
    {
      "inputs": [],
      "name": "SEND_HASH_TYPE",
      "outputs": [
        {
          "internalType": "bytes32",
          "name": "",
          "type": "bytes32"
        }
      ],
      "stateMutability": "view",
      "type": "function"
    },
    {
      "inputs": [
        {
          "internalType": "uint256",
          "name": "from_chain_id",
          "type": "uint256"
        },
        {
          "internalType": "uint256",
          "name": "from_id",
          "type": "uint256"
        },
        {
          "internalType": "address",
          "name": "from_sender",
          "type": "address"
        },
        {
          "internalType": "uint256",
          "name": "to_chain_id",
          "type": "uint256"
        },
        {
          "internalType": "address",
          "name": "contract_address",
          "type": "address"
        },
        {
          "internalType": "bytes",
          "name": "data",
          "type": "bytes"
        }
      ],
      "name": "SendHash",
      "outputs": [
        {
          "internalType": "bytes32",
          "name": "",
          "type": "bytes32"
        }
      ],
      "stateMutability": "view",
      "type": "function"
    },
    {
      "inputs": [],
      "name": "UPGRADE_INTERFACE_VERSION",
      "outputs": [
        {
          "internalType": "string",
          "name": "",
          "type": "string"
        }
      ],
      "stateMutability": "view",
      "type": "function"
    },
    {
      "inputs": [],
      "name": "UPGRADE_ROLE",
      "outputs": [
        {
          "internalType": "bytes32",
          "name": "",
          "type": "bytes32"
        }
      ],
      "stateMutability": "view",
      "type": "function"
    },
    {
      "inputs": [],
      "name": "VALIDATOR_ROLE",
      "outputs": [
        {
          "internalType": "bytes32",
          "name": "",
          "type": "bytes32"
        }
      ],
      "stateMutability": "view",
      "type": "function"
    },
    {
      "inputs": [
        {
          "internalType": "uint256",
          "name": "to_chain_id",
          "type": "uint256"
        },
        {
          "internalType": "address",
          "name": "contract_address",
          "type": "address"
        },
        {
          "internalType": "bytes",
          "name": "data",
          "type": "bytes"
        }
      ],
      "name": "call",
      "outputs": [
        {
          "internalType": "uint256",
          "name": "",
          "type": "uint256"
        }
      ],
      "stateMutability": "nonpayable",
      "type": "function"
    },
    {
      "inputs": [],
      "name": "eip712Domain",
      "outputs": [
        {
          "internalType": "bytes1",
          "name": "fields",
          "type": "bytes1"
        },
        {
          "internalType": "string",
          "name": "name",
          "type": "string"
        },
        {
          "internalType": "string",
          "name": "version",
          "type": "string"
        },
        {
          "internalType": "uint256",
          "name": "chainId",
          "type": "uint256"
        },
        {
          "internalType": "address",
          "name": "verifyingContract",
          "type": "address"
        },
        {
          "internalType": "bytes32",
          "name": "salt",
          "type": "bytes32"
        },
        {
          "internalType": "uint256[]",
          "name": "extensions",
          "type": "uint256[]"
        }
      ],
      "stateMutability": "view",
      "type": "function"
    },
    {
      "inputs": [
        {
          "internalType": "bytes32",
          "name": "role",
          "type": "bytes32"
        }
      ],
      "name": "getRoleAdmin",
      "outputs": [
        {
          "internalType": "bytes32",
          "name": "",
          "type": "bytes32"
        }
      ],
      "stateMutability": "view",
      "type": "function"
    },
    {
      "inputs": [
        {
          "internalType": "bytes32",
          "name": "role",
          "type": "bytes32"
        },
        {
          "internalType": "address",
          "name": "account",
          "type": "address"
        }
      ],
      "name": "grantRole",
      "outputs": [],
      "stateMutability": "nonpayable",
      "type": "function"
    },
    {
      "inputs": [
        {
          "internalType": "bytes32",
          "name": "role",
          "type": "bytes32"
        },
        {
          "internalType": "address",
          "name": "account",
          "type": "address"
        }
      ],
      "name": "hasRole",
      "outputs": [
        {
          "internalType": "bool",
          "name": "",
          "type": "bool"
        }
      ],
      "stateMutability": "view",
      "type": "function"
    },
    {
      "inputs": [],
      "name": "initialize",
      "outputs": [],
      "stateMutability": "nonpayable",
      "type": "function"
    },
    {
      "inputs": [],
      "name": "proxiableUUID",
      "outputs": [
        {
          "internalType": "bytes32",
          "name": "",
          "type": "bytes32"
        }
      ],
      "stateMutability": "view",
      "type": "function"
    },
    {
      "inputs": [
        {
          "internalType": "bytes32",
          "name": "role",
          "type": "bytes32"
        },
        {
          "internalType": "address",
          "name": "callerConfirmation",
          "type": "address"
        }
      ],
      "name": "renounceRole",
      "outputs": [],
      "stateMutability": "nonpayable",
      "type": "function"
    },
    {
      "inputs": [
        {
          "internalType": "bytes32",
          "name": "role",
          "type": "bytes32"
        },
        {
          "internalType": "address",
          "name": "account",
          "type": "address"
        }
      ],
      "name": "revokeRole",
      "outputs": [],
      "stateMutability": "nonpayable",
      "type": "function"
    },
    {
      "inputs": [
        {
          "internalType": "uint256",
          "name": "from_chain_id",
          "type": "uint256"
        },
        {
          "internalType": "uint256",
          "name": "from_id",
          "type": "uint256"
        },
        {
          "internalType": "address",
          "name": "from_sender",
          "type": "address"
        },
        {
          "internalType": "address",
          "name": "contract_address",
          "type": "address"
        },
        {
          "internalType": "bytes",
          "name": "data",
          "type": "bytes"
        },
        {
          "internalType": "bytes[]",
          "name": "signatures",
          "type": "bytes[]"
        }
      ],
      "name": "send",
      "outputs": [],
      "stateMutability": "nonpayable",
      "type": "function"
    },
    {
      "inputs": [],
      "name": "sequence",
      "outputs": [
        {
          "internalType": "uint256",
          "name": "",
          "type": "uint256"
        }
      ],
      "stateMutability": "view",
      "type": "function"
    },
    {
      "inputs": [
        {
          "internalType": "uint256",
          "name": "_weight",
          "type": "uint256"
        }
      ],
      "name": "setWeight",
      "outputs": [],
      "stateMutability": "nonpayable",
      "type": "function"
    },
    {
      "inputs": [
        {
          "internalType": "bytes4",
          "name": "interfaceId",
          "type": "bytes4"
        }
      ],
      "name": "supportsInterface",
      "outputs": [
        {
          "internalType": "bool",
          "name": "",
          "type": "bool"
        }
      ],
      "stateMutability": "view",
      "type": "function"
    },
    {
      "inputs": [
        {
          "internalType": "address",
          "name": "newImplementation",
          "type": "address"
        },
        {
          "internalType": "bytes",
          "name": "data",
          "type": "bytes"
        }
      ],
      "name": "upgradeToAndCall",
      "outputs": [],
      "stateMutability": "payable",
      "type": "function"
    },
    {
      "inputs": [
        {
          "internalType": "uint256",
          "name": "from_chain_id",
          "type": "uint256"
        },
        {
          "internalType": "uint256",
          "name": "from_id",
          "type": "uint256"
        },
        {
          "internalType": "address",
          "name": "from_sender",
          "type": "address"
        },
        {
          "internalType": "uint256",
          "name": "to_chain_id",
          "type": "uint256"
        },
        {
          "internalType": "address",
          "name": "contract_address",
          "type": "address"
        },
        {
          "internalType": "bytes",
          "name": "data",
          "type": "bytes"
        },
        {
          "internalType": "bytes",
          "name": "signature",
          "type": "bytes"
        }
      ],
      "name": "verify",
      "outputs": [
        {
          "internalType": "bool",
          "name": "",
          "type": "bool"
        }
      ],
      "stateMutability": "view",
      "type": "function"
    },
    {
      "inputs": [],
      "name": "weight",
      "outputs": [
        {
          "internalType": "uint256",
          "name": "",
          "type": "uint256"
        }
      ],
      "stateMutability": "view",
      "type": "function"
    }
  ],
  "bytecode": "0x60a06040523060805234801561001457600080fd5b5060805161230061003e60003960008181610f9f01528181610fc8015261116a01526123006000f3fe6080604052600436106101805760003560e01c80638129fc1c116100d6578063b908afa81161007f578063cc8f426111610059578063cc8f4261146104d6578063d547741f1461050a578063fc1711f21461052a57600080fd5b8063b908afa81461044e578063bc5c11aa14610482578063c49baebe146104a257600080fd5b8063a1aab33f116100b0578063a1aab33f146103cd578063a217fddf146103e3578063ad3cb1cc146103f857600080fd5b80638129fc1c1461032b57806384b0196e1461034057806391d148541461036857600080fd5b806336568abe1161013857806352d1902d1161011257806352d1902d146102c25780636ba3300c146102d757806375b238fc146102f757600080fd5b806336568abe146102795780634f1ef28614610299578063529d15cc146102ac57600080fd5b80630d682acb116101695780630d682acb146101e8578063248a9ca31461020a5780632f2ff15d1461025957600080fd5b806301ffc9a71461018557806304760f2e146101ba575b600080fd5b34801561019157600080fd5b506101a56101a0366004611a3b565b61054a565b60405190151581526020015b60405180910390f35b3480156101c657600080fd5b506101da6101d5366004611ae2565b6105e3565b6040519081526020016101b1565b3480156101f457600080fd5b50610208610203366004611b64565b61064e565b005b34801561021657600080fd5b506101da610225366004611c38565b60009081527f02dd7bc7dec4dceedda775e58dd541e08a116c6c53815c0bd028192f7b626800602052604090206001015490565b34801561026557600080fd5b50610208610274366004611c51565b61084c565b34801561028557600080fd5b50610208610294366004611c51565b610896565b6102086102a7366004611c93565b6108e7565b3480156102b857600080fd5b506101da60005481565b3480156102ce57600080fd5b506101da610906565b3480156102e357600080fd5b506101da6102f2366004611d55565b610935565b34801561030357600080fd5b506101da7f589d473ba17c0f47d494622893831497bad25919b9afb8e33e9521b8963fccde81565b34801561033757600080fd5b50610208610998565b34801561034c57600080fd5b50610355610bb5565b6040516101b19796959493929190611dff565b34801561037457600080fd5b506101a5610383366004611c51565b60009182527f02dd7bc7dec4dceedda775e58dd541e08a116c6c53815c0bd028192f7b626800602090815260408084206001600160a01b0393909316845291905290205460ff1690565b3480156103d957600080fd5b506101da60015481565b3480156103ef57600080fd5b506101da600081565b34801561040457600080fd5b506104416040518060400160405280600581526020017f352e302e3000000000000000000000000000000000000000000000000000000081525081565b6040516101b19190611eb1565b34801561045a57600080fd5b506101da7fcab03bc4dbcc648cd59d6bbe9f848d1e9092f914016aa290ee92e18700d1e6f981565b34801561048e57600080fd5b506101a561049d366004611ec4565b610c97565b3480156104ae57600080fd5b506101da7f5635ac0328a174458ffe72e6c6023489a57ff03280729989530f567288831c9181565b3480156104e257600080fd5b506101da7f17a4f53d2ecdb8066d7886a0e506b8014ce17a9a263db690785538a077e52b0981565b34801561051657600080fd5b50610208610525366004611c51565b610d20565b34801561053657600080fd5b50610208610545366004611c38565b610d64565b60007fffffffff0000000000000000000000000000000000000000000000000000000082167f7965db0b0000000000000000000000000000000000000000000000000000000014806105dd57507f01ffc9a7000000000000000000000000000000000000000000000000000000007fffffffff000000000000000000000000000000000000000000000000000000008316145b92915050565b60006106427f17a4f53d2ecdb8066d7886a0e506b8014ce17a9a263db690785538a077e52b0989898989898989604051602001610627989796959493929190611f9d565b60405160208183030381529060405280519060200120610dca565b98975050505050505050565b6000805b828110156106b357600061068a8a8c8b468c8c8c8c8c8b81811061067857610678611ff0565b905060200281019061049d9190612006565b905080156106a05761069d836001612063565b92505b50806106ab81612076565b915050610652565b5060015481101561070b5760405162461bcd60e51b815260206004820181905260248201527f766572696679207369676e6174757265732077656967687420696e76616c696460448201526064015b60405180910390fd5b6001600160a01b038616156107fe576040517fe09ee8700000000000000000000000000000000000000000000000000000000081526000906001600160a01b0388169063e09ee8709061076a908d908d908d908c908c9060040161208f565b6020604051808303816000875af1158015610789573d6000803e3d6000fd5b505050506040513d601f19601f820116820180604052508101906107ad91906120c9565b9050806107fc5760405162461bcd60e51b815260206004820152600b60248201527f43616c6c206661696c65640000000000000000000000000000000000000000006044820152606401610702565b505b7f5849ae3f4bc77f0ebd2d6db4ff282f91f2191d3df4493e63176c2ed22fb81852898989468a8a8a60405161083997969594939291906120eb565b60405180910390a1505050505050505050565b60008281527f02dd7bc7dec4dceedda775e58dd541e08a116c6c53815c0bd028192f7b626800602052604090206001015461088681610e12565b6108908383610e1f565b50505050565b6001600160a01b03811633146108d8576040517f6697b23200000000000000000000000000000000000000000000000000000000815260040160405180910390fd5b6108e28282610eee565b505050565b6108ef610f94565b6108f88261104d565b6109028282611077565b5050565b600061091061115f565b507f360894a13ba1a3210667c828492db98dca3e2076cc3735a920a3ca505d382bbc90565b60008054610944906001612063565b60008190556040517f599c34a8d0b3638870afcfe3d7d8125602721889a7535cda986ea656e63fc38c916109849146919033908a908a908a908a906120eb565b60405180910390a150600054949350505050565b7ff0c57e16840df040f15088dc2f81fe391c3923bec73e23a9662efc9c229c6a00805468010000000000000000810460ff16159067ffffffffffffffff166000811580156109e35750825b905060008267ffffffffffffffff166001148015610a005750303b155b905081158015610a0e575080155b15610a45576040517ff92ee8a900000000000000000000000000000000000000000000000000000000815260040160405180910390fd5b845467ffffffffffffffff191660011785558315610a7957845468ff00000000000000001916680100000000000000001785555b610aed6040518060400160405280600f81526020017f42324d65737361676542726964676500000000000000000000000000000000008152506040518060400160405280600181526020017f31000000000000000000000000000000000000000000000000000000000000008152506111a8565b610af56111ba565b610afd6111ba565b610b08600033610e1f565b50610b337f589d473ba17c0f47d494622893831497bad25919b9afb8e33e9521b8963fccde33610e1f565b50610b5e7fcab03bc4dbcc648cd59d6bbe9f848d1e9092f914016aa290ee92e18700d1e6f933610e1f565b50600080558315610bae57845468ff000000000000000019168555604051600181527fc7f505b2f371ae2175ee4913f4499e1f2633a7b5936321eed1cdaeb6115181d29060200160405180910390a15b5050505050565b600060608082808083817fa16a46d94261c7517cc8ff89f61c0ce93598e3c849801011dee649a6a557d1008054909150158015610bf457506001810154155b610c405760405162461bcd60e51b815260206004820152601560248201527f4549503731323a20556e696e697469616c697a656400000000000000000000006044820152606401610702565b610c486111c2565b610c50611297565b604080516000808252602082019092527f0f000000000000000000000000000000000000000000000000000000000000009c939b5091995046985030975095509350915050565b600080610ca98b8b8b8b8b8b8b6105e3565b9050610d117f5635ac0328a174458ffe72e6c6023489a57ff03280729989530f567288831c9161038386868080601f01602080910402602001604051908101604052809392919081815260200183838082843760009201919091525087939250506112e89050565b9b9a5050505050505050505050565b60008281527f02dd7bc7dec4dceedda775e58dd541e08a116c6c53815c0bd028192f7b6268006020526040902060010154610d5a81610e12565b6108908383610eee565b7f589d473ba17c0f47d494622893831497bad25919b9afb8e33e9521b8963fccde610d8e81610e12565b60018290556040518281527f1b29ec9f95417d697093ba2f17ce0861fb5bcbb7d5011cdde1020c9263ecc1169060200160405180910390a15050565b60006105dd610dd7611312565b836040517f19010000000000000000000000000000000000000000000000000000000000008152600281019290925260228201526042902090565b610e1c8133611321565b50565b60008281527f02dd7bc7dec4dceedda775e58dd541e08a116c6c53815c0bd028192f7b626800602081815260408084206001600160a01b038616855290915282205460ff16610ee4576000848152602082815260408083206001600160a01b03871684529091529020805460ff19166001179055610e9a3390565b6001600160a01b0316836001600160a01b0316857f2f8788117e7eff1d82e926ec794901d17c78024a50270940304540a733656f0d60405160405180910390a460019150506105dd565b60009150506105dd565b60008281527f02dd7bc7dec4dceedda775e58dd541e08a116c6c53815c0bd028192f7b626800602081815260408084206001600160a01b038616855290915282205460ff1615610ee4576000848152602082815260408083206001600160a01b0387168085529252808320805460ff1916905551339287917ff6391f5c32d9c69d2a47ea670b442974b53935d1edc7fd64eb21e047a839171b9190a460019150506105dd565b306001600160a01b037f000000000000000000000000000000000000000000000000000000000000000016148061102d57507f00000000000000000000000000000000000000000000000000000000000000006001600160a01b03166110217f360894a13ba1a3210667c828492db98dca3e2076cc3735a920a3ca505d382bbc546001600160a01b031690565b6001600160a01b031614155b1561104b5760405163703e46dd60e11b815260040160405180910390fd5b565b7fcab03bc4dbcc648cd59d6bbe9f848d1e9092f914016aa290ee92e18700d1e6f961090281610e12565b816001600160a01b03166352d1902d6040518163ffffffff1660e01b8152600401602060405180830381865afa9250505080156110d1575060408051601f3d908101601f191682019092526110ce91810190612137565b60015b6110f957604051634c9c8ce360e01b81526001600160a01b0383166004820152602401610702565b7f360894a13ba1a3210667c828492db98dca3e2076cc3735a920a3ca505d382bbc8114611155576040517faa1d49a400000000000000000000000000000000000000000000000000000000815260048101829052602401610702565b6108e283836113ae565b306001600160a01b037f0000000000000000000000000000000000000000000000000000000000000000161461104b5760405163703e46dd60e11b815260040160405180910390fd5b6111b0611404565b610902828261146b565b61104b611404565b7fa16a46d94261c7517cc8ff89f61c0ce93598e3c849801011dee649a6a557d10280546060917fa16a46d94261c7517cc8ff89f61c0ce93598e3c849801011dee649a6a557d1009161121390612150565b80601f016020809104026020016040519081016040528092919081815260200182805461123f90612150565b801561128c5780601f106112615761010080835404028352916020019161128c565b820191906000526020600020905b81548152906001019060200180831161126f57829003601f168201915b505050505091505090565b7fa16a46d94261c7517cc8ff89f61c0ce93598e3c849801011dee649a6a557d10380546060917fa16a46d94261c7517cc8ff89f61c0ce93598e3c849801011dee649a6a557d1009161121390612150565b6000806000806112f886866114de565b925092509250611308828261152b565b5090949350505050565b600061131c61162f565b905090565b60008281527f02dd7bc7dec4dceedda775e58dd541e08a116c6c53815c0bd028192f7b626800602090815260408083206001600160a01b038516845290915290205460ff16610902576040517fe2517d3f0000000000000000000000000000000000000000000000000000000081526001600160a01b038216600482015260248101839052604401610702565b6113b7826116a3565b6040516001600160a01b038316907fbc7cd75a20ee27fd9adebab32041f755214dbc6bffa90cc0225b39da2e5c2d3b90600090a28051156113fc576108e28282611732565b6109026117a8565b7ff0c57e16840df040f15088dc2f81fe391c3923bec73e23a9662efc9c229c6a005468010000000000000000900460ff1661104b576040517fd7e6bcf800000000000000000000000000000000000000000000000000000000815260040160405180910390fd5b611473611404565b7fa16a46d94261c7517cc8ff89f61c0ce93598e3c849801011dee649a6a557d1007fa16a46d94261c7517cc8ff89f61c0ce93598e3c849801011dee649a6a557d1026114bf84826121d8565b50600381016114ce83826121d8565b5060008082556001909101555050565b600080600083516041036115185760208401516040850151606086015160001a61150a888285856117e0565b955095509550505050611524565b50508151600091506002905b9250925092565b600082600381111561153f5761153f612298565b03611548575050565b600182600381111561155c5761155c612298565b03611593576040517ff645eedf00000000000000000000000000000000000000000000000000000000815260040160405180910390fd5b60028260038111156115a7576115a7612298565b036115e1576040517ffce698f700000000000000000000000000000000000000000000000000000000815260048101829052602401610702565b60038260038111156115f5576115f5612298565b03610902576040517fd78bce0c00000000000000000000000000000000000000000000000000000000815260048101829052602401610702565b60007f8b73c3c69bb8fe3d512ecc4cf759cc79239f7b179b0ffacaa9a75d522b39400f61165a6118af565b61166261192b565b60408051602081019490945283019190915260608201524660808201523060a082015260c00160405160208183030381529060405280519060200120905090565b806001600160a01b03163b6000036116d957604051634c9c8ce360e01b81526001600160a01b0382166004820152602401610702565b7f360894a13ba1a3210667c828492db98dca3e2076cc3735a920a3ca505d382bbc80547fffffffffffffffffffffffff0000000000000000000000000000000000000000166001600160a01b0392909216919091179055565b6060600080846001600160a01b03168460405161174f91906122ae565b600060405180830381855af49150503d806000811461178a576040519150601f19603f3d011682016040523d82523d6000602084013e61178f565b606091505b509150915061179f858383611981565b95945050505050565b341561104b576040517fb398979f00000000000000000000000000000000000000000000000000000000815260040160405180910390fd5b600080807f7fffffffffffffffffffffffffffffff5d576e7357a4501ddfe92f46681b20a084111561181b57506000915060039050826118a5565b604080516000808252602082018084528a905260ff891692820192909252606081018790526080810186905260019060a0016020604051602081039080840390855afa15801561186f573d6000803e3d6000fd5b5050604051601f1901519150506001600160a01b03811661189b575060009250600191508290506118a5565b9250600091508190505b9450945094915050565b60007fa16a46d94261c7517cc8ff89f61c0ce93598e3c849801011dee649a6a557d100816118db6111c2565b8051909150156118f357805160209091012092915050565b81548015611902579392505050565b7fc5d2460186f7233c927e7db2dcc703c0e500b653ca82273b7bfad8045d85a470935050505090565b60007fa16a46d94261c7517cc8ff89f61c0ce93598e3c849801011dee649a6a557d10081611957611297565b80519091501561196f57805160209091012092915050565b60018201548015611902579392505050565b60608261199657611991826119f9565b6119f2565b81511580156119ad57506001600160a01b0384163b155b156119ef576040517f9996b3150000000000000000000000000000000000000000000000000000000081526001600160a01b0385166004820152602401610702565b50805b9392505050565b805115611a095780518082602001fd5b6040517f1425ea4200000000000000000000000000000000000000000000000000000000815260040160405180910390fd5b600060208284031215611a4d57600080fd5b81357fffffffff00000000000000000000000000000000000000000000000000000000811681146119f257600080fd5b80356001600160a01b0381168114611a9457600080fd5b919050565b60008083601f840112611aab57600080fd5b50813567ffffffffffffffff811115611ac357600080fd5b602083019150836020828501011115611adb57600080fd5b9250929050565b600080600080600080600060c0888a031215611afd57600080fd5b8735965060208801359550611b1460408901611a7d565b945060608801359350611b2960808901611a7d565b925060a088013567ffffffffffffffff811115611b4557600080fd5b611b518a828b01611a99565b989b979a50959850939692959293505050565b60008060008060008060008060c0898b031215611b8057600080fd5b8835975060208901359650611b9760408a01611a7d565b9550611ba560608a01611a7d565b9450608089013567ffffffffffffffff80821115611bc257600080fd5b611bce8c838d01611a99565b909650945060a08b0135915080821115611be757600080fd5b818b0191508b601f830112611bfb57600080fd5b813581811115611c0a57600080fd5b8c60208260051b8501011115611c1f57600080fd5b6020830194508093505050509295985092959890939650565b600060208284031215611c4a57600080fd5b5035919050565b60008060408385031215611c6457600080fd5b82359150611c7460208401611a7d565b90509250929050565b634e487b7160e01b600052604160045260246000fd5b60008060408385031215611ca657600080fd5b611caf83611a7d565b9150602083013567ffffffffffffffff80821115611ccc57600080fd5b818501915085601f830112611ce057600080fd5b813581811115611cf257611cf2611c7d565b604051601f8201601f19908116603f01168101908382118183101715611d1a57611d1a611c7d565b81604052828152886020848701011115611d3357600080fd5b8260208601602083013760006020848301015280955050505050509250929050565b60008060008060608587031215611d6b57600080fd5b84359350611d7b60208601611a7d565b9250604085013567ffffffffffffffff811115611d9757600080fd5b611da387828801611a99565b95989497509550505050565b60005b83811015611dca578181015183820152602001611db2565b50506000910152565b60008151808452611deb816020860160208601611daf565b601f01601f19169290920160200192915050565b7fff00000000000000000000000000000000000000000000000000000000000000881681526000602060e081840152611e3b60e084018a611dd3565b8381036040850152611e4d818a611dd3565b606085018990526001600160a01b038816608086015260a0850187905284810360c0860152855180825283870192509083019060005b81811015611e9f57835183529284019291840191600101611e83565b50909c9b505050505050505050505050565b6020815260006119f26020830184611dd3565b600080600080600080600080600060e08a8c031215611ee257600080fd5b8935985060208a01359750611ef960408b01611a7d565b965060608a01359550611f0e60808b01611a7d565b945060a08a013567ffffffffffffffff80821115611f2b57600080fd5b611f378d838e01611a99565b909650945060c08c0135915080821115611f5057600080fd5b50611f5d8c828d01611a99565b915080935050809150509295985092959850929598565b81835281816020850137506000828201602090810191909152601f909101601f19169091010190565b88815287602082015286604082015260006001600160a01b03808816606084015286608084015280861660a08401525060e060c0830152611fe260e083018486611f74565b9a9950505050505050505050565b634e487b7160e01b600052603260045260246000fd5b6000808335601e1984360301811261201d57600080fd5b83018035915067ffffffffffffffff82111561203857600080fd5b602001915036819003821315611adb57600080fd5b634e487b7160e01b600052601160045260246000fd5b808201808211156105dd576105dd61204d565b6000600182016120885761208861204d565b5060010190565b8581528460208201526001600160a01b03841660408201526080606082015260006120be608083018486611f74565b979650505050505050565b6000602082840312156120db57600080fd5b815180151581146119f257600080fd5b87815286602082015260006001600160a01b03808816604084015286606084015280861660808401525060c060a083015261212a60c083018486611f74565b9998505050505050505050565b60006020828403121561214957600080fd5b5051919050565b600181811c9082168061216457607f821691505b60208210810361218457634e487b7160e01b600052602260045260246000fd5b50919050565b601f8211156108e257600081815260208120601f850160051c810160208610156121b15750805b601f850160051c820191505b818110156121d0578281556001016121bd565b505050505050565b815167ffffffffffffffff8111156121f2576121f2611c7d565b612206816122008454612150565b8461218a565b602080601f83116001811461223b57600084156122235750858301515b600019600386901b1c1916600185901b1785556121d0565b600085815260208120601f198616915b8281101561226a5788860151825594840194600190910190840161224b565b50858210156122885787850151600019600388901b60f8161c191681555b5050505050600190811b01905550565b634e487b7160e01b600052602160045260246000fd5b600082516122c0818460208701611daf565b919091019291505056fea264697066735822122033d72b8c23715af66fcd8edd0fdc354aca9da0c92805ebcc914586aeec0a1cde64736f6c63430008140033",
  "linkReferences": {},
  "deployedLinkReferences": {}
}