{
  "_format": "hh-sol-artifact-1",
  "contractName": "B2MessageBridge",
  "sourceName": "contracts/message/B2MessageBridge.sol",
  "abi": [
    {
      "inputs": [],
      "name": "AccessControlBadConfirmation",
      "type": "error"
    },
    {
      "inputs": [
        {
          "internalType": "address",
          "name": "account",
          "type": "address"
        },
        {
          "internalType": "bytes32",
          "name": "neededRole",
          "type": "bytes32"
        }
      ],
      "name": "AccessControlUnauthorizedAccount",
      "type": "error"
    },
    {
      "inputs": [
        {
          "internalType": "address",
          "name": "target",
          "type": "address"
        }
      ],
      "name": "AddressEmptyCode",
      "type": "error"
    },
    {
      "inputs": [],
      "name": "ECDSAInvalidSignature",
      "type": "error"
    },
    {
      "inputs": [
        {
          "internalType": "uint256",
          "name": "length",
          "type": "uint256"
        }
      ],
      "name": "ECDSAInvalidSignatureLength",
      "type": "error"
    },
    {
      "inputs": [
        {
          "internalType": "bytes32",
          "name": "s",
          "type": "bytes32"
        }
      ],
      "name": "ECDSAInvalidSignatureS",
      "type": "error"
    },
    {
      "inputs": [
        {
          "internalType": "address",
          "name": "implementation",
          "type": "address"
        }
      ],
      "name": "ERC1967InvalidImplementation",
      "type": "error"
    },
    {
      "inputs": [],
      "name": "ERC1967NonPayable",
      "type": "error"
    },
    {
      "inputs": [],
      "name": "FailedInnerCall",
      "type": "error"
    },
    {
      "inputs": [],
      "name": "InvalidInitialization",
      "type": "error"
    },
    {
      "inputs": [],
      "name": "NotInitializing",
      "type": "error"
    },
    {
      "inputs": [],
      "name": "UUPSUnauthorizedCallContext",
      "type": "error"
    },
    {
      "inputs": [
        {
          "internalType": "bytes32",
          "name": "slot",
          "type": "bytes32"
        }
      ],
      "name": "UUPSUnsupportedProxiableUUID",
      "type": "error"
    },
    {
      "anonymous": false,
      "inputs": [
        {
          "indexed": false,
          "internalType": "uint256",
          "name": "from_chain_id",
          "type": "uint256"
        },
        {
          "indexed": false,
          "internalType": "uint256",
          "name": "from_id",
          "type": "uint256"
        },
        {
          "indexed": false,
          "internalType": "address",
          "name": "from_sender",
          "type": "address"
        },
        {
          "indexed": false,
          "internalType": "uint256",
          "name": "to_chain_id",
          "type": "uint256"
        },
        {
          "indexed": false,
          "internalType": "address",
          "name": "contract_address",
          "type": "address"
        },
        {
          "indexed": false,
          "internalType": "bytes",
          "name": "data",
          "type": "bytes"
        }
      ],
      "name": "Call",
      "type": "event"
    },
    {
      "anonymous": false,
      "inputs": [],
      "name": "EIP712DomainChanged",
      "type": "event"
    },
    {
      "anonymous": false,
      "inputs": [
        {
          "indexed": false,
          "internalType": "uint64",
          "name": "version",
          "type": "uint64"
        }
      ],
      "name": "Initialized",
      "type": "event"
    },
    {
      "anonymous": false,
      "inputs": [
        {
          "indexed": true,
          "internalType": "bytes32",
          "name": "role",
          "type": "bytes32"
        },
        {
          "indexed": true,
          "internalType": "bytes32",
          "name": "previousAdminRole",
          "type": "bytes32"
        },
        {
          "indexed": true,
          "internalType": "bytes32",
          "name": "newAdminRole",
          "type": "bytes32"
        }
      ],
      "name": "RoleAdminChanged",
      "type": "event"
    },
    {
      "anonymous": false,
      "inputs": [
        {
          "indexed": true,
          "internalType": "bytes32",
          "name": "role",
          "type": "bytes32"
        },
        {
          "indexed": true,
          "internalType": "address",
          "name": "account",
          "type": "address"
        },
        {
          "indexed": true,
          "internalType": "address",
          "name": "sender",
          "type": "address"
        }
      ],
      "name": "RoleGranted",
      "type": "event"
    },
    {
      "anonymous": false,
      "inputs": [
        {
          "indexed": true,
          "internalType": "bytes32",
          "name": "role",
          "type": "bytes32"
        },
        {
          "indexed": true,
          "internalType": "address",
          "name": "account",
          "type": "address"
        },
        {
          "indexed": true,
          "internalType": "address",
          "name": "sender",
          "type": "address"
        }
      ],
      "name": "RoleRevoked",
      "type": "event"
    },
    {
      "anonymous": false,
      "inputs": [
        {
          "indexed": false,
          "internalType": "uint256",
          "name": "from_chain_id",
          "type": "uint256"
        },
        {
          "indexed": false,
          "internalType": "uint256",
          "name": "from_id",
          "type": "uint256"
        },
        {
          "indexed": false,
          "internalType": "address",
          "name": "from_sender",
          "type": "address"
        },
        {
          "indexed": false,
          "internalType": "uint256",
          "name": "to_chain_id",
          "type": "uint256"
        },
        {
          "indexed": false,
          "internalType": "address",
          "name": "contract_address",
          "type": "address"
        },
        {
          "indexed": false,
          "internalType": "bytes",
          "name": "data",
          "type": "bytes"
        }
      ],
      "name": "Send",
      "type": "event"
    },
    {
      "anonymous": false,
      "inputs": [
        {
          "indexed": false,
          "internalType": "uint256",
          "name": "weight",
          "type": "uint256"
        }
      ],
      "name": "SetWeight",
      "type": "event"
    },
    {
      "anonymous": false,
      "inputs": [
        {
          "indexed": true,
          "internalType": "address",
          "name": "implementation",
          "type": "address"
        }
      ],
      "name": "Upgraded",
      "type": "event"
    },
    {
      "inputs": [],
      "name": "ADMIN_ROLE",
      "outputs": [
        {
          "internalType": "bytes32",
          "name": "",
          "type": "bytes32"
        }
      ],
      "stateMutability": "view",
      "type": "function"
    },
    {
      "inputs": [],
      "name": "DEFAULT_ADMIN_ROLE",
      "outputs": [
        {
          "internalType": "bytes32",
          "name": "",
          "type": "bytes32"
        }
      ],
      "stateMutability": "view",
      "type": "function"
    },
    {
      "inputs": [],
      "name": "SEND_HASH_TYPE",
      "outputs": [
        {
          "internalType": "bytes32",
          "name": "",
          "type": "bytes32"
        }
      ],
      "stateMutability": "view",
      "type": "function"
    },
    {
      "inputs": [
        {
          "internalType": "uint256",
          "name": "from_chain_id",
          "type": "uint256"
        },
        {
          "internalType": "uint256",
          "name": "from_id",
          "type": "uint256"
        },
        {
          "internalType": "address",
          "name": "from_sender",
          "type": "address"
        },
        {
          "internalType": "uint256",
          "name": "to_chain_id",
          "type": "uint256"
        },
        {
          "internalType": "address",
          "name": "contract_address",
          "type": "address"
        },
        {
          "internalType": "bytes",
          "name": "data",
          "type": "bytes"
        }
      ],
      "name": "SendHash",
      "outputs": [
        {
          "internalType": "bytes32",
          "name": "",
          "type": "bytes32"
        }
      ],
      "stateMutability": "view",
      "type": "function"
    },
    {
      "inputs": [],
      "name": "UPGRADE_INTERFACE_VERSION",
      "outputs": [
        {
          "internalType": "string",
          "name": "",
          "type": "string"
        }
      ],
      "stateMutability": "view",
      "type": "function"
    },
    {
      "inputs": [],
      "name": "UPGRADE_ROLE",
      "outputs": [
        {
          "internalType": "bytes32",
          "name": "",
          "type": "bytes32"
        }
      ],
      "stateMutability": "view",
      "type": "function"
    },
    {
      "inputs": [],
      "name": "VALIDATOR_ROLE",
      "outputs": [
        {
          "internalType": "bytes32",
          "name": "",
          "type": "bytes32"
        }
      ],
      "stateMutability": "view",
      "type": "function"
    },
    {
      "inputs": [
        {
          "internalType": "uint256",
          "name": "to_chain_id",
          "type": "uint256"
        },
        {
          "internalType": "address",
          "name": "contract_address",
          "type": "address"
        },
        {
          "internalType": "bytes",
          "name": "data",
          "type": "bytes"
        }
      ],
      "name": "call",
      "outputs": [
        {
          "internalType": "uint256",
          "name": "",
          "type": "uint256"
        }
      ],
      "stateMutability": "nonpayable",
      "type": "function"
    },
    {
      "inputs": [],
      "name": "eip712Domain",
      "outputs": [
        {
          "internalType": "bytes1",
          "name": "fields",
          "type": "bytes1"
        },
        {
          "internalType": "string",
          "name": "name",
          "type": "string"
        },
        {
          "internalType": "string",
          "name": "version",
          "type": "string"
        },
        {
          "internalType": "uint256",
          "name": "chainId",
          "type": "uint256"
        },
        {
          "internalType": "address",
          "name": "verifyingContract",
          "type": "address"
        },
        {
          "internalType": "bytes32",
          "name": "salt",
          "type": "bytes32"
        },
        {
          "internalType": "uint256[]",
          "name": "extensions",
          "type": "uint256[]"
        }
      ],
      "stateMutability": "view",
      "type": "function"
    },
    {
      "inputs": [
        {
          "internalType": "bytes32",
          "name": "role",
          "type": "bytes32"
        }
      ],
      "name": "getRoleAdmin",
      "outputs": [
        {
          "internalType": "bytes32",
          "name": "",
          "type": "bytes32"
        }
      ],
      "stateMutability": "view",
      "type": "function"
    },
    {
      "inputs": [
        {
          "internalType": "bytes32",
          "name": "role",
          "type": "bytes32"
        },
        {
          "internalType": "address",
          "name": "account",
          "type": "address"
        }
      ],
      "name": "grantRole",
      "outputs": [],
      "stateMutability": "nonpayable",
      "type": "function"
    },
    {
      "inputs": [
        {
          "internalType": "bytes32",
          "name": "role",
          "type": "bytes32"
        },
        {
          "internalType": "address",
          "name": "account",
          "type": "address"
        }
      ],
      "name": "hasRole",
      "outputs": [
        {
          "internalType": "bool",
          "name": "",
          "type": "bool"
        }
      ],
      "stateMutability": "view",
      "type": "function"
    },
    {
      "inputs": [
        {
          "internalType": "uint256",
          "name": "",
          "type": "uint256"
        },
        {
          "internalType": "uint256",
          "name": "",
          "type": "uint256"
        }
      ],
      "name": "ids",
      "outputs": [
        {
          "internalType": "bool",
          "name": "",
          "type": "bool"
        }
      ],
      "stateMutability": "view",
      "type": "function"
    },
    {
      "inputs": [],
      "name": "initialize",
      "outputs": [],
      "stateMutability": "nonpayable",
      "type": "function"
    },
    {
      "inputs": [],
      "name": "proxiableUUID",
      "outputs": [
        {
          "internalType": "bytes32",
          "name": "",
          "type": "bytes32"
        }
      ],
      "stateMutability": "view",
      "type": "function"
    },
    {
      "inputs": [
        {
          "internalType": "bytes32",
          "name": "role",
          "type": "bytes32"
        },
        {
          "internalType": "address",
          "name": "callerConfirmation",
          "type": "address"
        }
      ],
      "name": "renounceRole",
      "outputs": [],
      "stateMutability": "nonpayable",
      "type": "function"
    },
    {
      "inputs": [
        {
          "internalType": "bytes32",
          "name": "role",
          "type": "bytes32"
        },
        {
          "internalType": "address",
          "name": "account",
          "type": "address"
        }
      ],
      "name": "revokeRole",
      "outputs": [],
      "stateMutability": "nonpayable",
      "type": "function"
    },
    {
      "inputs": [
        {
          "internalType": "uint256",
          "name": "from_chain_id",
          "type": "uint256"
        },
        {
          "internalType": "uint256",
          "name": "from_id",
          "type": "uint256"
        },
        {
          "internalType": "address",
          "name": "from_sender",
          "type": "address"
        },
        {
          "internalType": "address",
          "name": "contract_address",
          "type": "address"
        },
        {
          "internalType": "bytes",
          "name": "data",
          "type": "bytes"
        },
        {
          "internalType": "bytes[]",
          "name": "signatures",
          "type": "bytes[]"
        }
      ],
      "name": "send",
      "outputs": [],
      "stateMutability": "nonpayable",
      "type": "function"
    },
    {
      "inputs": [],
      "name": "sequence",
      "outputs": [
        {
          "internalType": "uint256",
          "name": "",
          "type": "uint256"
        }
      ],
      "stateMutability": "view",
      "type": "function"
    },
    {
      "inputs": [
        {
          "internalType": "uint256",
          "name": "",
          "type": "uint256"
        }
      ],
      "name": "sequences",
      "outputs": [
        {
          "internalType": "uint256",
          "name": "",
          "type": "uint256"
        }
      ],
      "stateMutability": "view",
      "type": "function"
    },
    {
      "inputs": [
        {
          "internalType": "uint256",
          "name": "_weight",
          "type": "uint256"
        }
      ],
      "name": "setWeight",
      "outputs": [],
      "stateMutability": "nonpayable",
      "type": "function"
    },
    {
      "inputs": [
        {
          "internalType": "bytes4",
          "name": "interfaceId",
          "type": "bytes4"
        }
      ],
      "name": "supportsInterface",
      "outputs": [
        {
          "internalType": "bool",
          "name": "",
          "type": "bool"
        }
      ],
      "stateMutability": "view",
      "type": "function"
    },
    {
      "inputs": [
        {
          "internalType": "address",
          "name": "newImplementation",
          "type": "address"
        },
        {
          "internalType": "bytes",
          "name": "data",
          "type": "bytes"
        }
      ],
      "name": "upgradeToAndCall",
      "outputs": [],
      "stateMutability": "payable",
      "type": "function"
    },
    {
      "inputs": [
        {
          "internalType": "uint256",
          "name": "from_chain_id",
          "type": "uint256"
        },
        {
          "internalType": "uint256",
          "name": "from_id",
          "type": "uint256"
        },
        {
          "internalType": "address",
          "name": "from_sender",
          "type": "address"
        },
        {
          "internalType": "uint256",
          "name": "to_chain_id",
          "type": "uint256"
        },
        {
          "internalType": "address",
          "name": "contract_address",
          "type": "address"
        },
        {
          "internalType": "bytes",
          "name": "data",
          "type": "bytes"
        },
        {
          "internalType": "bytes",
          "name": "signature",
          "type": "bytes"
        }
      ],
      "name": "verify",
      "outputs": [
        {
          "internalType": "bool",
          "name": "",
          "type": "bool"
        }
      ],
      "stateMutability": "view",
      "type": "function"
    },
    {
      "inputs": [],
      "name": "weight",
      "outputs": [
        {
          "internalType": "uint256",
          "name": "",
          "type": "uint256"
        }
      ],
      "stateMutability": "view",
      "type": "function"
    }
  ],
  "bytecode": "0x60a06040523060805234801561001457600080fd5b5060805161242761003e600039600081816110e70152818161111001526112b201526124276000f3fe6080604052600436106101965760003560e01c806384b0196e116100e1578063b908afa81161008a578063c86a64f711610064578063c86a64f714610527578063cc8f426114610554578063d547741f14610588578063fc1711f2146105a857600080fd5b8063b908afa81461049f578063bc5c11aa146104d3578063c49baebe146104f357600080fd5b8063a1aab33f116100bb578063a1aab33f1461041e578063a217fddf14610434578063ad3cb1cc1461044957600080fd5b806384b0196e1461035657806391d148541461037e5780639d449d11146103e357600080fd5b80634f1ef286116101435780636ba3300c1161011d5780636ba3300c146102ed57806375b238fc1461030d5780638129fc1c1461034157600080fd5b80634f1ef286146102af578063529d15cc146102c257806352d1902d146102d857600080fd5b8063248a9ca311610174578063248a9ca3146102205780632f2ff15d1461026f57806336568abe1461028f57600080fd5b806301ffc9a71461019b57806304760f2e146101d05780630d682acb146101fe575b600080fd5b3480156101a757600080fd5b506101bb6101b6366004611b83565b6105c8565b60405190151581526020015b60405180910390f35b3480156101dc57600080fd5b506101f06101eb366004611c2a565b610661565b6040519081526020016101c7565b34801561020a57600080fd5b5061021e610219366004611cac565b61070a565b005b34801561022c57600080fd5b506101f061023b366004611d80565b60009081527f02dd7bc7dec4dceedda775e58dd541e08a116c6c53815c0bd028192f7b626800602052604090206001015490565b34801561027b57600080fd5b5061021e61028a366004611d99565b610972565b34801561029b57600080fd5b5061021e6102aa366004611d99565b6109bc565b61021e6102bd366004611ddb565b610a0d565b3480156102ce57600080fd5b506101f060005481565b3480156102e457600080fd5b506101f0610a2c565b3480156102f957600080fd5b506101f0610308366004611e9d565b610a5b565b34801561031957600080fd5b506101f07f589d473ba17c0f47d494622893831497bad25919b9afb8e33e9521b8963fccde81565b34801561034d57600080fd5b5061021e610ae4565b34801561036257600080fd5b5061036b610cfd565b6040516101c79796959493929190611f47565b34801561038a57600080fd5b506101bb610399366004611d99565b60009182527f02dd7bc7dec4dceedda775e58dd541e08a116c6c53815c0bd028192f7b626800602090815260408084206001600160a01b0393909316845291905290205460ff1690565b3480156103ef57600080fd5b506101bb6103fe366004611ff9565b600360209081526000928352604080842090915290825290205460ff1681565b34801561042a57600080fd5b506101f060015481565b34801561044057600080fd5b506101f0600081565b34801561045557600080fd5b506104926040518060400160405280600581526020017f352e302e3000000000000000000000000000000000000000000000000000000081525081565b6040516101c7919061201b565b3480156104ab57600080fd5b506101f07fcab03bc4dbcc648cd59d6bbe9f848d1e9092f914016aa290ee92e18700d1e6f981565b3480156104df57600080fd5b506101bb6104ee36600461202e565b610ddf565b3480156104ff57600080fd5b506101f07f5635ac0328a174458ffe72e6c6023489a57ff03280729989530f567288831c9181565b34801561053357600080fd5b506101f0610542366004611d80565b60026020526000908152604090205481565b34801561056057600080fd5b506101f07f17a4f53d2ecdb8066d7886a0e506b8014ce17a9a263db690785538a077e52b0981565b34801561059457600080fd5b5061021e6105a3366004611d99565b610e68565b3480156105b457600080fd5b5061021e6105c3366004611d80565b610eac565b60007fffffffff0000000000000000000000000000000000000000000000000000000082167f7965db0b00000000000000000000000000000000000000000000000000000000148061065b57507f01ffc9a7000000000000000000000000000000000000000000000000000000007fffffffff000000000000000000000000000000000000000000000000000000008316145b92915050565b60006106fe7f17a4f53d2ecdb8066d7886a0e506b8014ce17a9a263db690785538a077e52b098989898989898960405161069c9291906120de565b60408051918290038220602083019890985281019590955260608501939093526001600160a01b03918216608085015260a08401521660c082015260e08101919091526101000160405160208183030381529060405280519060200120610f12565b98975050505050505050565b60008881526003602090815260408083208a845290915290205460ff16156107795760405162461bcd60e51b815260206004820152601960248201527f6e6f6e2d72657065617461626c652070726f63657373696e670000000000000060448201526064015b60405180910390fd5b6000805b828110156107de5760006107b58b8b8b468c8c8c8c8c8b8181106107a3576107a36120ee565b90506020028101906104ee9190612104565b905080156107cb576107c8836001612161565b92505b50806107d681612174565b91505061077d565b506001548110156108315760405162461bcd60e51b815260206004820181905260248201527f766572696679207369676e6174757265732077656967687420696e76616c69646044820152606401610770565b6001600160a01b03861615610924576040517fe09ee8700000000000000000000000000000000000000000000000000000000081526000906001600160a01b0388169063e09ee87090610890908d908d908d908c908c906004016121b6565b6020604051808303816000875af11580156108af573d6000803e3d6000fd5b505050506040513d601f19601f820116820180604052508101906108d391906121f0565b9050806109225760405162461bcd60e51b815260206004820152600b60248201527f43616c6c206661696c65640000000000000000000000000000000000000000006044820152606401610770565b505b7f5849ae3f4bc77f0ebd2d6db4ff282f91f2191d3df4493e63176c2ed22fb81852898989468a8a8a60405161095f9796959493929190612212565b60405180910390a1505050505050505050565b60008281527f02dd7bc7dec4dceedda775e58dd541e08a116c6c53815c0bd028192f7b62680060205260409020600101546109ac81610f5a565b6109b68383610f67565b50505050565b6001600160a01b03811633146109fe576040517f6697b23200000000000000000000000000000000000000000000000000000000815260040160405180910390fd5b610a088282611036565b505050565b610a156110dc565b610a1e82611195565b610a2882826111bf565b5050565b6000610a366112a7565b507f360894a13ba1a3210667c828492db98dca3e2076cc3735a920a3ca505d382bbc90565b600084815260026020526040812080549082610a7683612174565b9091555050600085815260026020526040908190205490517f599c34a8d0b3638870afcfe3d7d8125602721889a7535cda986ea656e63fc38c91610ac69146919033908a908a908a908a90612212565b60405180910390a15050506000918252506002602052604090205490565b7ff0c57e16840df040f15088dc2f81fe391c3923bec73e23a9662efc9c229c6a00805468010000000000000000810460ff16159067ffffffffffffffff16600081158015610b2f5750825b905060008267ffffffffffffffff166001148015610b4c5750303b155b905081158015610b5a575080155b15610b91576040517ff92ee8a900000000000000000000000000000000000000000000000000000000815260040160405180910390fd5b845467ffffffffffffffff191660011785558315610bc557845468ff00000000000000001916680100000000000000001785555b610c396040518060400160405280600f81526020017f42324d65737361676542726964676500000000000000000000000000000000008152506040518060400160405280600181526020017f31000000000000000000000000000000000000000000000000000000000000008152506112f0565b610c41611302565b610c49611302565b610c54600033610f67565b50610c7f7f589d473ba17c0f47d494622893831497bad25919b9afb8e33e9521b8963fccde33610f67565b50610caa7fcab03bc4dbcc648cd59d6bbe9f848d1e9092f914016aa290ee92e18700d1e6f933610f67565b508315610cf657845468ff000000000000000019168555604051600181527fc7f505b2f371ae2175ee4913f4499e1f2633a7b5936321eed1cdaeb6115181d29060200160405180910390a15b5050505050565b600060608082808083817fa16a46d94261c7517cc8ff89f61c0ce93598e3c849801011dee649a6a557d1008054909150158015610d3c57506001810154155b610d885760405162461bcd60e51b815260206004820152601560248201527f4549503731323a20556e696e697469616c697a656400000000000000000000006044820152606401610770565b610d9061130a565b610d986113df565b604080516000808252602082019092527f0f000000000000000000000000000000000000000000000000000000000000009c939b5091995046985030975095509350915050565b600080610df18b8b8b8b8b8b8b610661565b9050610e597f5635ac0328a174458ffe72e6c6023489a57ff03280729989530f567288831c9161039986868080601f01602080910402602001604051908101604052809392919081815260200183838082843760009201919091525087939250506114309050565b9b9a5050505050505050505050565b60008281527f02dd7bc7dec4dceedda775e58dd541e08a116c6c53815c0bd028192f7b6268006020526040902060010154610ea281610f5a565b6109b68383611036565b7f589d473ba17c0f47d494622893831497bad25919b9afb8e33e9521b8963fccde610ed681610f5a565b60018290556040518281527f1b29ec9f95417d697093ba2f17ce0861fb5bcbb7d5011cdde1020c9263ecc1169060200160405180910390a15050565b600061065b610f1f61145a565b836040517f19010000000000000000000000000000000000000000000000000000000000008152600281019290925260228201526042902090565b610f648133611469565b50565b60008281527f02dd7bc7dec4dceedda775e58dd541e08a116c6c53815c0bd028192f7b626800602081815260408084206001600160a01b038616855290915282205460ff1661102c576000848152602082815260408083206001600160a01b03871684529091529020805460ff19166001179055610fe23390565b6001600160a01b0316836001600160a01b0316857f2f8788117e7eff1d82e926ec794901d17c78024a50270940304540a733656f0d60405160405180910390a4600191505061065b565b600091505061065b565b60008281527f02dd7bc7dec4dceedda775e58dd541e08a116c6c53815c0bd028192f7b626800602081815260408084206001600160a01b038616855290915282205460ff161561102c576000848152602082815260408083206001600160a01b0387168085529252808320805460ff1916905551339287917ff6391f5c32d9c69d2a47ea670b442974b53935d1edc7fd64eb21e047a839171b9190a4600191505061065b565b306001600160a01b037f000000000000000000000000000000000000000000000000000000000000000016148061117557507f00000000000000000000000000000000000000000000000000000000000000006001600160a01b03166111697f360894a13ba1a3210667c828492db98dca3e2076cc3735a920a3ca505d382bbc546001600160a01b031690565b6001600160a01b031614155b156111935760405163703e46dd60e11b815260040160405180910390fd5b565b7fcab03bc4dbcc648cd59d6bbe9f848d1e9092f914016aa290ee92e18700d1e6f9610a2881610f5a565b816001600160a01b03166352d1902d6040518163ffffffff1660e01b8152600401602060405180830381865afa925050508015611219575060408051601f3d908101601f191682019092526112169181019061225e565b60015b61124157604051634c9c8ce360e01b81526001600160a01b0383166004820152602401610770565b7f360894a13ba1a3210667c828492db98dca3e2076cc3735a920a3ca505d382bbc811461129d576040517faa1d49a400000000000000000000000000000000000000000000000000000000815260048101829052602401610770565b610a0883836114f6565b306001600160a01b037f000000000000000000000000000000000000000000000000000000000000000016146111935760405163703e46dd60e11b815260040160405180910390fd5b6112f861154c565b610a2882826115b3565b61119361154c565b7fa16a46d94261c7517cc8ff89f61c0ce93598e3c849801011dee649a6a557d10280546060917fa16a46d94261c7517cc8ff89f61c0ce93598e3c849801011dee649a6a557d1009161135b90612277565b80601f016020809104026020016040519081016040528092919081815260200182805461138790612277565b80156113d45780601f106113a9576101008083540402835291602001916113d4565b820191906000526020600020905b8154815290600101906020018083116113b757829003601f168201915b505050505091505090565b7fa16a46d94261c7517cc8ff89f61c0ce93598e3c849801011dee649a6a557d10380546060917fa16a46d94261c7517cc8ff89f61c0ce93598e3c849801011dee649a6a557d1009161135b90612277565b6000806000806114408686611626565b9250925092506114508282611673565b5090949350505050565b6000611464611777565b905090565b60008281527f02dd7bc7dec4dceedda775e58dd541e08a116c6c53815c0bd028192f7b626800602090815260408083206001600160a01b038516845290915290205460ff16610a28576040517fe2517d3f0000000000000000000000000000000000000000000000000000000081526001600160a01b038216600482015260248101839052604401610770565b6114ff826117eb565b6040516001600160a01b038316907fbc7cd75a20ee27fd9adebab32041f755214dbc6bffa90cc0225b39da2e5c2d3b90600090a280511561154457610a08828261187a565b610a286118f0565b7ff0c57e16840df040f15088dc2f81fe391c3923bec73e23a9662efc9c229c6a005468010000000000000000900460ff16611193576040517fd7e6bcf800000000000000000000000000000000000000000000000000000000815260040160405180910390fd5b6115bb61154c565b7fa16a46d94261c7517cc8ff89f61c0ce93598e3c849801011dee649a6a557d1007fa16a46d94261c7517cc8ff89f61c0ce93598e3c849801011dee649a6a557d10261160784826122ff565b506003810161161683826122ff565b5060008082556001909101555050565b600080600083516041036116605760208401516040850151606086015160001a61165288828585611928565b95509550955050505061166c565b50508151600091506002905b9250925092565b6000826003811115611687576116876123bf565b03611690575050565b60018260038111156116a4576116a46123bf565b036116db576040517ff645eedf00000000000000000000000000000000000000000000000000000000815260040160405180910390fd5b60028260038111156116ef576116ef6123bf565b03611729576040517ffce698f700000000000000000000000000000000000000000000000000000000815260048101829052602401610770565b600382600381111561173d5761173d6123bf565b03610a28576040517fd78bce0c00000000000000000000000000000000000000000000000000000000815260048101829052602401610770565b60007f8b73c3c69bb8fe3d512ecc4cf759cc79239f7b179b0ffacaa9a75d522b39400f6117a26119f7565b6117aa611a73565b60408051602081019490945283019190915260608201524660808201523060a082015260c00160405160208183030381529060405280519060200120905090565b806001600160a01b03163b60000361182157604051634c9c8ce360e01b81526001600160a01b0382166004820152602401610770565b7f360894a13ba1a3210667c828492db98dca3e2076cc3735a920a3ca505d382bbc80547fffffffffffffffffffffffff0000000000000000000000000000000000000000166001600160a01b0392909216919091179055565b6060600080846001600160a01b03168460405161189791906123d5565b600060405180830381855af49150503d80600081146118d2576040519150601f19603f3d011682016040523d82523d6000602084013e6118d7565b606091505b50915091506118e7858383611ac9565b95945050505050565b3415611193576040517fb398979f00000000000000000000000000000000000000000000000000000000815260040160405180910390fd5b600080807f7fffffffffffffffffffffffffffffff5d576e7357a4501ddfe92f46681b20a084111561196357506000915060039050826119ed565b604080516000808252602082018084528a905260ff891692820192909252606081018790526080810186905260019060a0016020604051602081039080840390855afa1580156119b7573d6000803e3d6000fd5b5050604051601f1901519150506001600160a01b0381166119e3575060009250600191508290506119ed565b9250600091508190505b9450945094915050565b60007fa16a46d94261c7517cc8ff89f61c0ce93598e3c849801011dee649a6a557d10081611a2361130a565b805190915015611a3b57805160209091012092915050565b81548015611a4a579392505050565b7fc5d2460186f7233c927e7db2dcc703c0e500b653ca82273b7bfad8045d85a470935050505090565b60007fa16a46d94261c7517cc8ff89f61c0ce93598e3c849801011dee649a6a557d10081611a9f6113df565b805190915015611ab757805160209091012092915050565b60018201548015611a4a579392505050565b606082611ade57611ad982611b41565b611b3a565b8151158015611af557506001600160a01b0384163b155b15611b37576040517f9996b3150000000000000000000000000000000000000000000000000000000081526001600160a01b0385166004820152602401610770565b50805b9392505050565b805115611b515780518082602001fd5b6040517f1425ea4200000000000000000000000000000000000000000000000000000000815260040160405180910390fd5b600060208284031215611b9557600080fd5b81357fffffffff0000000000000000000000000000000000000000000000000000000081168114611b3a57600080fd5b80356001600160a01b0381168114611bdc57600080fd5b919050565b60008083601f840112611bf357600080fd5b50813567ffffffffffffffff811115611c0b57600080fd5b602083019150836020828501011115611c2357600080fd5b9250929050565b600080600080600080600060c0888a031215611c4557600080fd5b8735965060208801359550611c5c60408901611bc5565b945060608801359350611c7160808901611bc5565b925060a088013567ffffffffffffffff811115611c8d57600080fd5b611c998a828b01611be1565b989b979a50959850939692959293505050565b60008060008060008060008060c0898b031215611cc857600080fd5b8835975060208901359650611cdf60408a01611bc5565b9550611ced60608a01611bc5565b9450608089013567ffffffffffffffff80821115611d0a57600080fd5b611d168c838d01611be1565b909650945060a08b0135915080821115611d2f57600080fd5b818b0191508b601f830112611d4357600080fd5b813581811115611d5257600080fd5b8c60208260051b8501011115611d6757600080fd5b6020830194508093505050509295985092959890939650565b600060208284031215611d9257600080fd5b5035919050565b60008060408385031215611dac57600080fd5b82359150611dbc60208401611bc5565b90509250929050565b634e487b7160e01b600052604160045260246000fd5b60008060408385031215611dee57600080fd5b611df783611bc5565b9150602083013567ffffffffffffffff80821115611e1457600080fd5b818501915085601f830112611e2857600080fd5b813581811115611e3a57611e3a611dc5565b604051601f8201601f19908116603f01168101908382118183101715611e6257611e62611dc5565b81604052828152886020848701011115611e7b57600080fd5b8260208601602083013760006020848301015280955050505050509250929050565b60008060008060608587031215611eb357600080fd5b84359350611ec360208601611bc5565b9250604085013567ffffffffffffffff811115611edf57600080fd5b611eeb87828801611be1565b95989497509550505050565b60005b83811015611f12578181015183820152602001611efa565b50506000910152565b60008151808452611f33816020860160208601611ef7565b601f01601f19169290920160200192915050565b7fff00000000000000000000000000000000000000000000000000000000000000881681526000602060e081840152611f8360e084018a611f1b565b8381036040850152611f95818a611f1b565b606085018990526001600160a01b038816608086015260a0850187905284810360c0860152855180825283870192509083019060005b81811015611fe757835183529284019291840191600101611fcb565b50909c9b505050505050505050505050565b6000806040838503121561200c57600080fd5b50508035926020909101359150565b602081526000611b3a6020830184611f1b565b600080600080600080600080600060e08a8c03121561204c57600080fd5b8935985060208a0135975061206360408b01611bc5565b965060608a0135955061207860808b01611bc5565b945060a08a013567ffffffffffffffff8082111561209557600080fd5b6120a18d838e01611be1565b909650945060c08c01359150808211156120ba57600080fd5b506120c78c828d01611be1565b915080935050809150509295985092959850929598565b8183823760009101908152919050565b634e487b7160e01b600052603260045260246000fd5b6000808335601e1984360301811261211b57600080fd5b83018035915067ffffffffffffffff82111561213657600080fd5b602001915036819003821315611c2357600080fd5b634e487b7160e01b600052601160045260246000fd5b8082018082111561065b5761065b61214b565b6000600182016121865761218661214b565b5060010190565b81835281816020850137506000828201602090810191909152601f909101601f19169091010190565b8581528460208201526001600160a01b03841660408201526080606082015260006121e560808301848661218d565b979650505050505050565b60006020828403121561220257600080fd5b81518015158114611b3a57600080fd5b87815286602082015260006001600160a01b03808816604084015286606084015280861660808401525060c060a083015261225160c08301848661218d565b9998505050505050505050565b60006020828403121561227057600080fd5b5051919050565b600181811c9082168061228b57607f821691505b6020821081036122ab57634e487b7160e01b600052602260045260246000fd5b50919050565b601f821115610a0857600081815260208120601f850160051c810160208610156122d85750805b601f850160051c820191505b818110156122f7578281556001016122e4565b505050505050565b815167ffffffffffffffff81111561231957612319611dc5565b61232d816123278454612277565b846122b1565b602080601f831160018114612362576000841561234a5750858301515b600019600386901b1c1916600185901b1785556122f7565b600085815260208120601f198616915b8281101561239157888601518255948401946001909101908401612372565b50858210156123af5787850151600019600388901b60f8161c191681555b5050505050600190811b01905550565b634e487b7160e01b600052602160045260246000fd5b600082516123e7818460208701611ef7565b919091019291505056fea264697066735822122060ec9c9dc88bae34c15afb93a894736dda08a8be657458e7929634163eb3254264736f6c63430008140033",
  "linkReferences": {},
  "deployedLinkReferences": {}
}